:020000040800F2
:1000000090050020C9000008F90E0008DD0D000869
:1000100000000000000000000000000000000000E0
:10002000000000000000000000000000430F000876
:100030000000000000000000410F000869110008E6
:10004000DB00000800000000DB000008DB00000807
:10005000DB000008DB000008DB000008DB00000814
:1000600000000000DB00000835010008DB0000088C
:10007000DB000008DB000008DB00000800000000D7
:10008000491200085912000800000000DB000008B7
:10009000DB000008DB000008DB000008DB000008D4
:1000A000DB000008DB000008DB0000081D1400086E
:1000B000DB0000080348854600F02AF800480047A6
:1000C000591600089005002004488047044800475E
:1000D000FEE7FEE7FEE7FEE7FEE7FEE7ED110008BC
:1000E000B500000830B50B4601460020202201244F
:1000F00009E00D46D5409D4205D31D469540491B5C
:100100002546954040191546521E002DF1DC30BDA4
:10011000064C0125064E05E0E36807CC2B430C3C5A
:1001200098471034B442F7D3FFF7C8FF30170008E0
:100130005017000810B5034800F02CF8024800F0F2
:1001400029F810BDCC0000208800002070B50024E4
:10015000014620314A78022A03D004218163012418
:1001600016E0026813680E25AB431360026813683B
:100170005B085B0013600122056C1346AB40C56B46
:100180006B604A7000220A70416B002900D08847DA
:10019000204670BDF0B4C16B0D6801680C68042284
:1001A000066C1346B3402B420DD063070BD50B688A
:1001B0009B0602D40B6893430B60016C8A40C16BB1
:1001C0004A60C16A19E00227B74002462F40012366
:1001D0002032002F15D0A70713D50C68A40604D42D
:1001E0000C680A25AC430C605370036C02219940E3
:1001F000C36B596000211170816A002916D0F0BCD0
:1002000008470827B7402F4210D024070ED50C68A6
:100210000E25AC430C60046C1946A140C46B6160B0
:100220008363537000211170016BE6E7F0BC7047E7
:1002300031B500F0B5F8009C0546601C00D0641C88
:1002400000F0AEF8401BA042FAD338BDF8B5002349
:100250008DE001249C40A44622407DD04C68022CB5
:1002600001D0122C0CD1DC08A40027183C6A5D07D1
:10027000ED0E0F26AE40B4430E69AE4026433E62FB
:1002800005685E000324B4400F79A543BF07BF0F84
:10029000B7402F4307604D68012D05D0022D03D0D4
:1002A000112D01D0122D0ED18568CF68A543B7401E
:1002B0002F43876047686546AF430D79ED06ED0F24
:1002C0009D403D434560C568A5438C68B4402C43C0
:1002D000C4604C68E40049D5284CA5690126354323
:1002E000A561A4699D0834400094254CAD002F19E8
:1002F000BC689D072E0F0F25B540AC430925ED06C0
:10030000A84201D100250FE01E4DA84201D10125D0
:100310000AE01D4DA84201D1022505E01B4DA8426F
:1003200001D1032500E00525B5402543BD60184CEB
:1003300025684E689543F60300D51543256065682A
:100340004E689543B60300D515436560A5684E68B1
:100350009543F60202D500E008E01543A560E56884
:100360004E689543B60200D51543E5605B1C0A68EC
:100370001446DC4000D06CE7F8BD000000100240DD
:10038000000001400004004800080048000C00483C
:1003900000040140002A01D08161704781627047EA
:1003A00001480068704700001400002002480168FE
:1003B000491C0160704700001400002010B5064879
:1003C0000168102211430160002000F007F800F0DE
:1003D00017F8002010BD00000020024010B50446B0
:1003E00000F042F97D21C900FFF77CFE00F036FBEA
:1003F00000222146501E00F029F8002010BD000008
:1004000008B50C488169012211438161806910405F
:10041000002200901146501F00F018F800221146EB
:10042000901E00F013F800221146501E00F00EF846
:1004300008BD000000100240C106C90E012088401E
:10044000014908607047000000E100E010B500F0CD
:1004500055FD10BDF8B505460068354CC00352D5B2
:10046000E0690026C00007D4E16920040143E1618E
:10047000E1690140012600912E480168C90510D4A8
:100480000168821511430160FFF78AFF074604E007
:10049000FFF786FFC01B642824D826480068C005E3
:1004A000F6D5206A03273F02384020D069683940DA
:1004B00081421CD0206A226AB843012109040A4300
:1004C0002262226A8A4322622062C0070FD0FFF7AD
:1004D00067FF009008E0FFF763FF0099411A164894
:1004E000814201D90320F8BD206A8007F3D5206A34
:1004F0006968B84308432062002E04D0E1690120F6
:1005000000078143E1612878C00705D0206BA96806
:1005100080088000084320632878800605D5206B7A
:1005200010218843E968084320630020F8BD0000DB
:10053000001002400070004088130000F8B5054626
:1005400044480E460068C007C00FB0420AD2414876
:10055000016849084900314301600068C007C00FC5
:10056000B0425CD128783C4C800705D56068F0210A
:100570008843A968084360602878C0073FD068684E
:10058000012813D02168022813D08907002946DAF0
:1005900061688908890001436160FFF701FF6968AC
:1005A000074601290DD0022917D024E021688903CC
:1005B000ECE78901EAE7FFF7F3FEC11B2748814218
:1005C00017D860680007800F0128F4D117E0FFF703
:1005D000E7FEC11B214881420BD860680007800FED
:1005E0000228F4D10BE0FFF7DBFEC11B1B48814260
:1005F00001D90320F8BD60680007800FF3D11548CA
:100600000168C907C90FB1420BD9016849084900FF
:10061000314301600068C007C00FB04201D0012023
:10062000F8BD2878400706D560680721090288438D
:10063000E9680843606000F01DF86168084A09062F
:10064000090F515CC840074908600020FFF7C6FE4B
:100650000020F8BD00200240001002408813000076
:100660001E170008100000200148006870470000B5
:100670001000002010B512A30FCB88B06C460FC439
:1006800013A30FCB0FC416494A680C20134603402E
:100690001448042B0FD0082B0DD193021B0F6C466E
:1006A000E45CC96A04AB0907090F595CD20304D59D
:1006B000FFF718FD604308B010BD0B486043FAE730
:1006C00002030405060708090A0B0C0D0E0F101093
:1006D0000102030405060708090A0B0C0D0E0F1092
:1006E0000010024000127A0000093D00FEB50446E9
:1006F0000078D04DC00747D068680007800F0128F8
:1007000007D068680007800F022809D16868C00315
:1007100006D52868800337D5606800287ED033E08E
:10072000012062680004012A11D08100002A01D052
:10073000052A10D02A6882432A60286888432860E6
:100740006068002814D0FFF72BFE06460CE02968ED
:1007500001432960F4E72A680A432A60F7E7FFF7B4
:100760001FFE801B64286FD828688003F7D50BE034
:10077000FFF716FE064604E0FFF712FE801B642812
:10078000F1D828688003F7D4207801268007002854
:100790003BDA68680007800F07D068680007800FA1
:1007A000022809D16868C00306D42868800715D5D7
:1007B000E068012832D111E0E0680028286815D0EF
:1007C00030432860FFF7ECFD074604E0FFF7E8FD43
:1007D000C01B0228C7D828688007F7D52868F821E9
:1007E00088432169C900084328600EE040084000A2
:1007F0002860FFF7D5FD074604E0FFF7D1FDC01BD9
:100800000228B0D828688007F7D42078000724D5BC
:10081000E0690028686A10D0304300E008E16862AF
:10082000FFF7BEFD074604E0FFF7BAFDC01B022834
:1008300099D8686A8007F7D50FE0400840006862E1
:10084000FFF7AEFD074605E09DE0FFF7A9FDC01BE1
:10085000022888D8686A8007F7D4207804274007E0
:10086000002860DA00200190E869C00008D4E96936
:10087000B8060143E961E969014001200091019056
:100880006D480168C90511D40168821511430160E2
:10089000FFF786FD009005E0FFF782FD0099401A02
:1008A000642870D864480068C005F5D5A0680128A0
:1008B0000AD0002801D0052810D0286A400840003E
:1008C0002862286AB84301E0286A30432862A06899
:1008D000002812D0FFF764FD00900AE0286A384330
:1008E0002862F1E7FFF75CFD0099411A5348814205
:1008F00049D8286A8007F5D50DE0FFF751FD009033
:1009000006E0FFF74DFD0099411A4C4881423AD864
:10091000286A8007F5D40198002804D0E9690120ED
:1009200000078143E9612078C00635D56069012858
:100930000CD0401D686B23D038436863686B400857
:1009400040006863FFF72CFD064622E0686B3843E1
:100950006863686B30436863FFF722FD064604E076
:10096000FFF71EFD801B02285BD8686B8007F7D558
:10097000686BF8218843A169C900084368630BE0EC
:10098000B8436863F4E74CE0FFF70AFD801B0228D8
:1009900047D8686B8007F7D4206A002846D069687A
:1009A0000907890F022943D0012636060228286844
:1009B00005D0B0432860FFF7F3FC044633E0B043B2
:1009C0002860FFF7EDFC074604E0FFF7E9FCC01BD9
:1009D000022826D828688001F7D4E86AE16A00096D
:1009E00000010843E862616AA06A084369683D2221
:1009F0001204914308436860286830432860FFF779
:100A0000CFFC044604E0FFF7CBFC001B022808D80B
:100A100028688001F7D509E0FFF7C2FC001B022817
:100A200001D90320FEBD28688001F5D40020FEBD59
:100A30000120FEBD0010024000700040881300003D
:100A4000042204490428086902D0904308617047D1
:100A50001043FBE700E000E070470000094910B5D3
:100A6000401E884201D9012010BD074C606103215E
:100A7000081F00F043FA0020A06107202061002039
:100A800010BD0000FFFFFF0000E000E010B5FFF721
:100A9000E3FF10BD7047704770B5040005D02546D0
:100AA0002035687F002802D006E0012070BD0020BC
:100AB0002877204600F00AF802206877211D206878
:100AC00000F0D2FB01206877002070BD08B5134A02
:100AD0000168134891420DD1C26902210A43C261E3
:100AE000C06900220840009011461020FFF7AEFCBC
:100AF00010200FE00B4A91420ED1C26910210A4327
:100B0000C261C06900220840009011461120FFF721
:100B10009DFC1120FFF790FC08BD00000004004080
:100B200000100240001000400268D36801210B430E
:100B3000D360006802680A43026000207047704773
:100B400070B50446006801690025C943890700297A
:100B500015DBC168C943890711D4E91E0161012071
:100B60002077206880698007204602D0FFF7E7FFE2
:100B700004E000F096F8204600F094F8257720680D
:100B80000169C943490717D4C168C943490713D448
:100B90000421C94301610220207720688069800513
:100BA000800F204602D0FFF7CAFF04E000F079F87A
:100BB000204600F077F8257720680169C9430907C6
:100BC00016D4C168C943090712D40821C943016179
:100BD000042020772068C0698007204602D0FFF7F4
:100BE000AEFF04E000F05DF8204600F05BF82577EA
:100BF00020680169C943C90617D4C168C943C90639
:100C000013D41021C9430161082020772068C069EE
:100C10008005800F204602D0FFF791FF04E000F02E
:100C200040F8204600F03EF8257720680169C94366
:100C3000C90708D1C168C943C90704D1891E016128
:100C4000204600F031F820680169C943090609D43B
:100C5000C168C943090605D48021C9430161204602
:100C6000FFF718FF20680169C943490609D4C16824
:100C7000C943490605D44021C9430161204600F01B
:100C80001FF820680169C943890609D4C168C943AE
:100C9000890605D42021C94301612046FFF7FBFEE8
:100CA00070BD70477047000000680349884202D158
:100CB0000249012008707047001000400000002029
:100CC00070477047F8B503680446D96918680D077E
:100CD0002D0F07D18A0605D5820603D5204600F0E0
:100CE0002DFBF8BD9A68002D64D0D507ED0FFF26C7
:100CF000213606402E435DD0CE0706D0C60504D56A
:100D000001261E62E36E3343E3668F070223042647
:100D1000002F06DAD70704D027683B62E76E374317
:100D2000E7664F0706D5D20704D022681662E26E46
:100D30001A43E2660A0709D5202202402A4305D059
:100D4000236808221A62E36E1343E366E26E002A08
:100D5000C7D0890604D5800602D5204600F0EEFAF9
:100D6000E06E000703D42068806840061CD520464A
:100D700000F0C8FA20688168490611D581684022D0
:100D800091438160606E00280AD012494163606E11
:100D9000FFF7DCF90028A4D0606E416B8847F8BDEE
:100DA0002046FFF78EFFF8BD2046FFF78AFF0020A0
:100DB000E066F8BD0A0605D5020603D5204600F018
:100DC000FAFAF8BD4906FCD54006FAD5204600F0EF
:100DD000A8FAF8BDF112000870477047FEE700005E
:100DE000F0B52F4887B042690121C9040A43426126
:100DF00042690A4005924269C9000A434261426958
:100E00000A400592426949110A43426142690A4017
:100E10000592426949000A4342614069072408403B
:100E200064030590002221461E48FFF7B3FA1E4EC8
:100E3000092000223146C006FFF7ACFA1B4F002202
:100E400039461B48FFF7A6FA0022C0211948FFF7D0
:100E5000A1FA0094002401250195029469461148E5
:100E60000394FFF7F3F9092002946946C00600963F
:100E700001950394FFF7EAF9029469460C4800973C
:100E800001950394FFF7E2F9C020009002946946AF
:100E9000019503940748FFF7D9F907B0F0BD0000AA
:100EA0000010024000080048FF990000FBFF00000E
:100EB000000400480014004810B50A4808490160C1
:100EC00027210022416082608261C160FFF7E4FD5A
:100ED000002803D05C2104A000F0A8FA10BD000097
:100EE00000100040500100202E2E2F5372632F74EB
:100EF000696D2E6300000000704700008307FF2229
:100F0000DB0E9A408907090E994000280BDA00078A
:100F1000000F0838830808489B001818C3699343DA
:100F20000B43C3617047830804489B001B18186873
:100F3000904308431860704700ED00E000E400E0D3
:100F400070477047F8B50446264E0D46C00701D0DD
:100F5000002200E0012240213046FFF71BFAA007E3
:100F600001D5002200E0012280213046FFF712FA6D
:100F7000600701D5002200E0012220213046FFF762
:100F800009FA200701D5002200E001221021304695
:100F9000FFF700FA1449154FE00601D5002200E0E2
:100FA00001223846FFF7F6F91148A10601D50022C3
:100FB00000E001228021FFF7EDF90E49600601D51E
:100FC000002200E001223846FFF7E4F9012149023E
:100FD000012D04D001223046FFF7DCF9F8BD0022D4
:100FE000F9E700000004004800800000000000480D
:100FF000001400480010000070B504461C491D4D47
:10100000800601D5002200E001222846FFF7C2F940
:10101000E00601D5002200E0012208212846FFF762
:10102000B9F91549154D200701D5002200E001222C
:101030002846FFF7AFF91249600701D5002200E00A
:1010400001222846FFF7A6F90E48A10701D5002284
:1010500000E001224021FFF79DF90B49E00701D094
:10106000002200E001222846FFF794F970BD00003D
:101070000001000000040048008000000008004853
:1010800000400000001400480020000010B5154C7E
:101090002078401CC0B2207001280DD0182819D02B
:1010A000192808D1002020706178491CC9B26170EC
:1010B000052900D9607010BD617801208840C0B258
:1010C000FFF79AFF074960780831064A095C921CCD
:1010D000105C04E00020FFF78FFF0121FF20FFF7E5
:1010E00031FF10BD01000020F0B500231C4F012688
:1010F000C25C002A03D00024202A06D000E0344637
:1011000000252C4303D00A2215E00125F9E72D2AFA
:1011100021D03D2A21D01446303C092C01D8143A64
:10112000D2B21546413D192D00D8EAB21446613CB1
:10113000192C00D8E2B2BC5C0522D51A094A5455D4
:1011400034469C400C40DC40921DD4545B1CDBB206
:10115000052BCDD9F0BD1B22E3E71A22E1E7000001
:10116000F81600080300002010B5FFF71FF9FFF77D
:101170008DFC10BD70B594B0002410200994022598
:101180000490052001260095C00403960A90089556
:101190000B946846FFF7AAFA002800D0FEE7072064
:1011A0000C900E9401210D950F940CA8FFF7C6F931
:1011B000002800D0FEE710A810961294FFF74AF915
:1011C000002800D0FEE7FFF74FFA7D21C900FEF7A7
:1011D00089FFFFF743FC0420FFF732FC0022114691
:1011E000501EFFF733F914B070BD000013480168BA
:1011F0000122114301604168114A114041600168B8
:10120000104A11400160016801229204914301607B
:1012100041683F22120491434160C16A09090901F2
:10122000C162016BFF22143291430163416B490893
:1012300049004163002181607047000000100240B6
:101240000CB8FF08FFFFF6FE10B50248FFF778FC68
:1012500010BD00001001002010B50248FFF770FC1F
:1012600010BD000050010020F0B502681A4B1B4C65
:10127000984201D0A04203D17025AA434D682A4369
:10128000174D184E184F98420AD0A04208D0174C5C
:10129000A04205D0A84203D0B04201D0B84205D147
:1012A0001446032212029443CA6822438024A243B4
:1012B0004C69224302608A68C2620A68826298426C
:1012C00005D0A84203D0B04201D0B84201D109698B
:1012D000016301214161F0BD002C01400004004088
:1012E000004001400044014000480140002000400F
:1012F00010B5406A0022014640314A834A82FFF716
:10130000E0FC10BD01680A68FF2321339A430A609C
:1013100001688A68520852008A6020216030817218
:10132000704710B501680A6840239A430A6020227A
:1013300069210A54FFF751FD002010BD70B5024627
:10134000403203466033948B9D7A0168222D05D08C
:101350008869082210438861022070BD898C0126AB
:1013600085683603B54202D10569002D0BD02140B6
:10137000446D651C45652170518B491E0904090C9B
:10138000518307D015E0456D21402980416D891CAE
:101390004165F1E701680A68FF242134A2430A602D
:1013A00001688A68520852008A6020219972FFF70A
:1013B00013FD002070BD6921095C212901D00220A4
:1013C000704702464032518A002912D001238168B9
:1013D0001B03994202D10169002915D0C16C4B1C35
:1013E000C364006809780185508A401E508200203D
:1013F000704701680A6880239A430A6000680168A0
:10140000402211430160F2E7C16C03680988C905F5
:10141000C90D1985C16C891CC164E5E710B5024886
:10142000FFF750FC10BD000018000020FEE702E0AE
:1014300008C8121F08C1002AFAD17047704700205F
:1014400001E001C1121F002AFBD1704710B52D4CDD
:101450000121002289022046FEF79CFF0022012183
:101460002046FEF797FF0924E406002208212046C3
:10147000FEF790FF002204212046FEF78BFF00229A
:1014800002212046FEF786FF002201212046FEF7BA
:1014900081FF3C20FEF7CCFE0021302000F04AF80E
:1014A0001420FEF7C5FE0021302000F043F8012093
:1014B000FEF7BEFE0021302000F03CF80021202085
:1014C00000F038F80021282000F034F80021142022
:1014D00000F030F800210C2000F02CF8002106204C
:1014E00000F028F80120FEF7A3FE0021012000F003
:1014F00021F80021802000F01DF80120FEF798FE61
:1015000010BD00000004004810B501280BD00228CF
:101510000BD003280BD0042804D1D331C8B200214A
:1015200000F008F810BD7F31F8E7BF31F6E79331DE
:10153000F4E7000070B50446012080023D4D00290B
:1015400001D0012200E0002201462846FEF722FFDA
:10155000394EE00901D0012200E00022012130468D
:10156000FEF718FFA009C00701D0012200E0002209
:1015700002213046FEF70EFF6009C00701D00122AC
:1015800000E0002204213046FEF704FF2009C007D6
:1015900001D0012200E0002208213046FEF7FAFEC9
:1015A000012211462846FEF7F5FE0220401CFA28CB
:1015B000FCD3002201212846FEF7ECFEE008C0071C
:1015C00001D0012200E0002201213046FEF7E2FEB8
:1015D000A008C00701D0012200E00022022130460D
:1015E000FEF7D8FE6008C00701D0012200E000220B
:1015F00004213046FEF7CEFEE00701D0012200E0D4
:10160000002208213046FEF7C5FE01221146284679
:10161000FEF7C0FE0221491CFA29FCD30022012159
:101620002846FEF7B7FE05490220401C8842FCD33D
:1016300070BD00000004004800000048983A000017
:1016400010B5044603E00121641CFFF773FF207806
:101650000028F8D110BD0000FEF7B0FEFFF78AFDAC
:10166000FFF7BEFBFFF728FCFFF7F0FE14A0FFF723
:10167000E7FF01210220FFF747FF15A0FFF7E0FF7A
:101680007D200001FEF7D4FD00210120FFF752FF6D
:101690000B210220FFF738FF11A0FFF7D1FF1248FE
:1016A000FFF742FA002111A0FFF71EFD114C0025A3
:1016B00020780128FCD12570FFF7E8FCF8E700004E
:1016C0002020202032783136204C43440000000096
:1016D0002023202044454E454D45534920202300DA
:1016E00042696C6B6F6E000050010020313335375A
:1016F0003900000000000020777C395E79713D766A
:10170000300E003800543F734F506D781C000000BD
:101710006E5B48403F065B4F666D7D077F6F000044
:101720000000000000000102030406070809000091
:101730005017000800000020180000002E140008B8
:101740006817000818000020780500003E14000803
:101750000000000000000000000000000000000089
:0817600000127A0000000000F5
:04000005080000B53A
:00000001FF
