:020000040800F2
:10000000C0050020C9000008A11100081D0F00084C
:1000100000000000000000000000000000000000E0
:100020000000000000000000000000008B14000829
:100030000000000000000000891400087517000887
:10004000DB00000800000000DB000008DB00000807
:10005000DB000008DB000008DB000008DB00000814
:1000600000000000DB00000835010008DB0000088C
:10007000DB000008DB000008DB00000800000000D7
:10008000551800086518000800000000DB00000893
:10009000DB000008DB000008DB000008DB000008D4
:1000A000DB000008DB000008DB000008991A0008EC
:1000B000DB0000080348854600F02AF800480047A6
:1000C000F11C0008C0050020044880470448004790
:1000D000FEE7FEE7FEE7FEE7FEE7FEE7F9170008AA
:1000E000B500000830B50B4601460020202201244F
:1000F00009E00D46D5409D4205D31D469540491B5C
:100100002546954040191546521E002DF1DC30BDA4
:10011000064C0125064E05E0E36807CC2B430C3C5A
:1001200098471034B442F7D3FFF7C8FFF81D000812
:10013000181E000810B5034800F02CF8024800F023
:1001400029F810BDF8000020B400002070B500248C
:10015000014620314A78022A03D004218163012418
:1001600016E0026813680E25AB431360026813683B
:100170005B085B0013600122056C1346AB40C56B46
:100180006B604A7000220A70416B002900D08847DA
:10019000204670BDF0B4C16B0D6801680C68042284
:1001A000066C1346B3402B420DD063070BD50B688A
:1001B0009B0602D40B6893430B60016C8A40C16BB1
:1001C0004A60C16A19E00227B74002462F40012366
:1001D0002032002F15D0A70713D50C68A40604D42D
:1001E0000C680A25AC430C605370036C02219940E3
:1001F000C36B596000211170816A002916D0F0BCD0
:1002000008470827B7402F4210D024070ED50C68A6
:100210000E25AC430C60046C1946A140C46B6160B0
:100220008363537000211170016BE6E7F0BC7047E7
:1002300031B500F0BBF8009C0546601C00D0641C82
:1002400000F0B4F8401BA042FAD338BDF8B5002343
:100250008DE001249C40A44622407DD04C68022CB5
:1002600001D0122C0CD1DC08A40027183C6A5D07D1
:10027000ED0E0F26AE40B4430E69AE4026433E62FB
:1002800005685E000324B4400F79A543BF07BF0F84
:10029000B7402F4307604D68012D05D0022D03D0D4
:1002A000112D01D0122D0ED18568CF68A543B7401E
:1002B0002F43876047686546AF430D79ED06ED0F24
:1002C0009D403D434560C568A5438C68B4402C43C0
:1002D000C4604C68E40049D5284CA5690126354323
:1002E000A561A4699D0834400094254CAD002F19E8
:1002F000BC689D072E0F0F25B540AC430925ED06C0
:10030000A84201D100250FE01E4DA84201D10125D0
:100310000AE01D4DA84201D1022505E01B4DA8426F
:1003200001D1032500E00525B5402543BD60184CEB
:1003300025684E689543F60300D51543256065682A
:100340004E689543B60300D515436560A5684E68B1
:100350009543F60202D500E008E01543A560E56884
:100360004E689543B60200D51543E5605B1C0A68EC
:100370001446DC4000D06CE7F8BD000000100240DD
:10038000000001400004004800080048000C00483C
:10039000000401400069084000D001207047002A95
:1003A00001D0816170478162704700000148006898
:1003B000704700004000002002480168491C0160AD
:1003C000704700004000002010B506480168102268
:1003D00011430160002000F007F800F017F800203A
:1003E00010BD00000020024010B5044600F042F9A4
:1003F0007D21C900FFF776FE00F036FB0022214682
:10040000501E00F029F8002010BD000008B50C486F
:1004100081690122114381618069104000220090AE
:100420001146501F00F018F800221146901E00F0EF
:1004300013F800221146501E00F00EF808BD00000F
:1004400000100240C106C90E012088400149086021
:100450007047000000E100E010B500F0A3FE10BD01
:10046000F8B505460068354CC00352D5E069002652
:10047000C00007D4E16920040143E161E169014062
:10048000012600912E480168C90510D40168821523
:1004900011430160FFF78AFF074604E0FFF786FF7C
:1004A000C01B642824D826480068C005F6D5206AF9
:1004B00003273F02384020D06968394081421CD070
:1004C000206A226AB843012109040A432262226A8F
:1004D0008A4322622062C0070FD0FFF767FF0090B7
:1004E00008E0FFF763FF0099411A1648814201D9DD
:1004F0000320F8BD206A8007F3D5206A6968B843F5
:1005000008432062002E04D0E169012000078143E6
:10051000E1612878C00705D0206BA96880088000B9
:10052000084320632878800605D5206B1021884376
:10053000E968084320630020F8BD00000010024075
:100540000070004088130000F8B5054644480E4688
:100550000068C007C00FB0420AD24148016849088C
:100560004900314301600068C007C00FB0425CD150
:1005700028783C4C800705D56068F0218843A9683D
:10058000084360602878C0073FD06868012813D00E
:100590002168022813D08907002946DA6168890892
:1005A000890001436160FFF701FF6968074601297F
:1005B0000DD0022917D024E021688903ECE78901D6
:1005C000EAE7FFF7F3FEC11B2748814217D86068AE
:1005D0000007800F0128F4D117E0FFF7E7FEC11BE9
:1005E000214881420BD860680007800F0228F4D1AF
:1005F0000BE0FFF7DBFEC11B1B48814201D9032042
:10060000F8BD60680007800FF3D115480168C9077D
:10061000C90FB1420BD90168490849003143016053
:100620000068C007C00FB04201D00120F8BD287893
:10063000400706D56068072109028843E968084336
:10064000606000F01DF86168084A0906090F515CF6
:10065000C840074908600020FFF7C6FE0020F8BD2B
:10066000002002400010024088130000E61D000830
:100670003C00002001480068704700003C0000205A
:1006800010B512A30FCB88B06C460FC413A30FCBC9
:100690000FC416494A680C20134603401448042B23
:1006A0000FD0082B0DD193021B0F6C46E45CC96A76
:1006B00004AB0907090F595CD20304D5FFF712FDFB
:1006C000604308B010BD0B486043FAE7020304051D
:1006D000060708090A0B0C0D0E0F10100102030487
:1006E00005060708090A0B0C0D0E0F10001002403A
:1006F00000127A0000093D00FEB504460078D04D96
:10070000C00747D068680007800F012807D06868D5
:100710000007800F022809D16868C00306D5286841
:10072000800337D5606800287ED033E001206268FE
:100730000004012A11D08100002A01D0052A10D01E
:100740002A6882432A6028688843286060680028F5
:1007500014D0FFF72BFE06460CE029680143296000
:10076000F4E72A680A432A60F7E7FFF71FFE801BB9
:1007700064286FD828688003F7D50BE0FFF716FED2
:10078000064604E0FFF712FE801B6428F1D82868B3
:100790008003F7D420780126800700283BDA6868B8
:1007A0000007800F07D068680007800F022809D172
:1007B0006868C00306D42868800715D5E06801285A
:1007C00032D111E0E0680028286815D03043286055
:1007D000FFF7ECFD074604E0FFF7E8FDC01B022829
:1007E000C7D828688007F7D52868F8218843216989
:1007F000C900084328600EE0400840002860FFF769
:10080000D5FD074604E0FFF7D1FDC01B0228B0D894
:1008100028688007F7D42078000724D5E0690028ED
:10082000686A10D0304300E008E16862FFF7BEFD5F
:10083000074604E0FFF7BAFDC01B022899D8686A92
:100840008007F7D50FE0400840006862FFF7AEFD73
:10085000074605E09DE0FFF7A9FDC01B022888D8E8
:10086000686A8007F7D4207804274007002860DAF8
:1008700000200190E869C00008D4E969B806014386
:10088000E961E96901400120009101906D4801682A
:10089000C90511D40168821511430160FFF786FD77
:1008A000009005E0FFF782FD0099401A642870D897
:1008B00064480068C005F5D5A06801280AD0002862
:1008C00001D0052810D0286A400840002862286A14
:1008D000B84301E0286A30432862A068002812D09B
:1008E000FFF764FD00900AE0286A38432862F1E7C8
:1008F000FFF75CFD0099411A5348814249D8286AA4
:100900008007F5D50DE0FFF751FD009006E0FFF7F9
:100910004DFD0099411A4C4881423AD8286A800717
:10092000F5D40198002804D0E9690120000781432B
:10093000E9612078C00635D5606901280CD0401DDA
:10094000686B23D038436863686B40084000686375
:10095000FFF72CFD064622E0686B38436863686B3E
:1009600030436863FFF722FD064604E0FFF71EFDF3
:10097000801B02285BD8686B8007F7D5686BF8216D
:100980008843A169C900084368630BE0B843686302
:10099000F4E74CE0FFF70AFD801B022847D8686B9C
:1009A0008007F7D4206A002846D069680907890FB4
:1009B000022943D0012636060228286805D0B04314
:1009C0002860FFF7F3FC044633E0B0432860FFF7EC
:1009D000EDFC074604E0FFF7E9FCC01B022826D81F
:1009E00028688001F7D4E86AE16A00090001084339
:1009F000E862616AA06A084369683D221204914373
:100A000008436860286830432860FFF7CFFC04463D
:100A100004E0FFF7CBFC001B022808D828688001FF
:100A2000F7D509E0FFF7C2FC001B022801D903201B
:100A3000FEBD28688001F5D40020FEBD0120FEBD6A
:100A40000010024000700040881300000422044996
:100A50000428086902D09043086170471043FBE7FF
:100A600000E000E070470000094910B5401E8842D0
:100A700001D9012010BD074C60610321081F00F05F
:100A800091FB0020A06107202061002010BD000024
:100A9000FFFFFF0000E000E010B5FFF7E3FF10BD2F
:100AA0007047704770B502462032137F012B1BD070
:100AB0000123137702245477046865687026B543D0
:100AC0006560046865680E68354365600468A568FC
:100AD0008026B543A5600068846849680C4384603B
:100AE00053770020107770BD022070BD70B50400F0
:100AF00005D025462035687F002802D006E0012079
:100B000070BD00202877204600F00AF802206877A0
:100B1000211D206800F0AEFE01206877002070BD26
:100B200008B5134A0168134891420DD1C2690221E8
:100B30000A43C261C069002208400090114610209B
:100B4000FFF78AFC10200FE00B4A91420ED1C269D8
:100B500010210A43C261C06900220840009011467A
:100B60001120FFF779FC1120FFF76CFC08BD000095
:100B70000004004000100240001000400268D368EA
:100B800001210B43D360006802680A430260002021
:100B90007047F8B5054604462035287F012817D050
:100BA00001272F7702206877226890687726FF2335
:100BB000B0431B02984390600868502837D00EDC81
:100BC000202857D006DC00284ED0102840D14EE017
:100BD0000220F8BD302850D0402839D13CE06028B0
:100BE0002DD0702817D001221203801A0ED0904207
:100BF0002ED1CB684A688968206800F07FFE2068A3
:100C00008168012292031143816021E0206881689C
:100C1000C908C900F8E7CB684A688968206800F00D
:100C20006DFE21688868B0433043886010E0CA6870
:100C30004968206800F075FE5021206806E0CA6807
:100C40004968206800F07EFE6021206800F061FEA7
:100C50006F7700202877F8BDCA684968206800F0DF
:100C600060FE40212068F1E700212068EEE71021B6
:100C70002068EBE720212068E8E730212068E5E7DD
:100C8000704770B50446006801690025C9438907AB
:100C9000002915DBC168C943890711D4E91E016128
:100CA00001202077206880698007204602D0FFF766
:100CB000E7FF04E000F096F8204600F094F825776E
:100CC00020680169C943490717D4C168C943490766
:100CD00013D40421C9430161022020772068806970
:100CE0008005800F204602D0FFF7CAFF04E000F025
:100CF00079F8204600F077F8257720680169C94324
:100D0000090716D4C168C943090712D40821C94389
:100D10000161042020772068C0698007204602D046
:100D2000FFF7AEFF04E000F05DF8204600F05BF84E
:100D3000257720680169C943C90617D4C168C9432A
:100D4000C90613D41021C943016108202077206807
:100D5000C0698005800F204602D0FFF791FF04E0B4
:100D600000F040F8204600F03EF825772068016941
:100D7000C943C90708D1C168C943C90704D1891E3D
:100D80000161204600F030F820680169C943090676
:100D900009D4C168C943090605D48021C94301614A
:100DA0002046FFF77DFE20680169C943490609D442
:100DB000C168C943490605D44021C94301612046A1
:100DC00000F01EF820680169C943890609D4C1688A
:100DD000C943890605D42021C94301612046FFF794
:100DE00060FE70BD7047704700680349884202D1B9
:100DF00002490120087070470010004000000020E8
:100E000070477047F8B503680446D96918680D073C
:100E10002D0F07D18A0605D5820603D5204600F09E
:100E2000CAFDF8BD9A68002D64D0D507ED0FFF26E6
:100E3000213606402E435DD0CE0706D0C60504D528
:100E400001261E62E36E3343E3668F070223042606
:100E5000002F06DAD70704D027683B62E76E3743D6
:100E6000E7664F0706D5D20704D022681662E26E05
:100E70001A43E2660A0709D5202202402A4305D018
:100E8000236808221A62E36E1343E366E26E002AC7
:100E9000C7D0890604D5800602D5204600F08BFD18
:100EA000E06E000703D42068806840061CD5204609
:100EB00000F065FD20688168490611D581684022EF
:100EC00091438160606E00280AD012494163606ED0
:100ED000FFF73CF90028A4D0606E416B8847F8BD4D
:100EE0002046FFF78EFFF8BD2046FFF78AFF00205F
:100EF000E066F8BD0A0605D5020603D5204600F0D7
:100F000097FDF8BD4906FCD54006FAD5204600F00D
:100F100045FDF8BD6B19000870477047FEE70000FB
:100F2000F0B56C4887B040690121C904084369499C
:100F3000486148690121C904084005906548406935
:100F4000C90008436349486148690121890508408F
:100F5000059060484169012040045E4A01435161A7
:100F60005169014005915169400001435161516946
:100F7000092401402403059101222146E003FFF7E3
:100F80000EFA2F263601012231465348FFF707FAA1
:100F9000012280215148FFF702FAFF270937012279
:100FA00039464D48FFF7FBF90721012249034C4818
:100FB000FFF7F5F9012240214848FFF7F0F9002238
:100FC000FF21E003FFF7EBF9002246494248FFF713
:100FD000E6F9FF2100220131E003FFF7E0F90721E4
:100FE000002249033C48FFF7DAF90122D1023A48CE
:100FF000FFF7D5F9009400240125092001950294FA
:101000006946C0060394FFF721F902946946324805
:10101000009601950394FFF719F98020009002943F
:101020006946019503942D48FFF710F9029469462B
:101030002948009701950394FFF708F9072040031A
:10104000009002946946019503942548FFF7FEF845
:101050004020009002946946019503941F48FFF7D1
:10106000F5F8FF2000900920029469460195039449
:10107000C006FFF7EBF81B48009002946946019503
:1010800003941548FFF7E2F8280200900920029423
:10109000694601950394C006FFF7D8F81D20C002E9
:1010A000009002946946019503940B48FFF7CEF82F
:1010B000E80202256A4631C209206946C006FFF7E8
:1010C000C5F8E8026A4631C269460348FFF7BEF830
:1010D00007B0F0BD001002400004004800140048B2
:1010E000000800480304000010B5184886B01649EF
:1010F0000160002477218460416004616321846180
:10110000C160FFF7F3FC002803D0132110A000F00A
:10111000CBFC01200003009069460C48FFF739FD25
:10112000002803D019210AA000F0BEFC049404A9F1
:1011300006480594FFF7B6FC002803D0202104A040
:1011400000F0B2FC06B010BD000400403C010020DD
:101150002E2E2F5372632F74696D2E6300000000D2
:1011600010B50A48084901602721002241608260C9
:101170008261C160FFF7BAFC002803D02E2104A0D1
:1011800000F092FC10BD0000001000407C01002027
:101190002E2E2F5372632F74696D2E630000000092
:1011A000704700008307FF22DB0E9A408907090E73
:1011B000994000280BDA0007000F08388308084818
:1011C0009B001818C36993430B43C361704783089E
:1011D00004489B001B181868904308431860704728
:1011E00000ED00E000E400E0F8B5A54CA54E207944
:1011F0002546401CC0B222352071EF1F030000F0CD
:1012000054FC07FE05375290CFFDFE00012100225D
:10121000C9023046FFF7C3F82078012820D0012208
:101220000121C9033046FFF7BAF86078012819D0C8
:101230000122012189033046FFF7B1F8A078012887
:1012400012D00122012149033046FFF7A8F8E078C7
:1012500001280BD00122FF2101310920C006D7E06F
:101260000022DDE70022E4E70022EBE70022F2E7BC
:101270000122D1023046FFF792F801220920110223
:10128000C006FFF78CF801210022C9033046FFF7A2
:1012900086F80121002289033046FFF780F80022FA
:1012A0000121490372E0012109037648FFF772F832
:1012B000734EE8701436F17800292AD00021FA78AC
:1012C000002A28D000221140014202D0608A401C2E
:1012D000608201210920C902C006FFF75BF868712E
:1012E0007179002919D000217A79002A17D00022BB
:1012F0001140014202D0A089401CA081FF21092099
:1013000000220131C006FFF74AF80122D1035D48EF
:101310007EE00121D3E70122D5E70121E4E70122A4
:10132000E6E701210920C902C006FFF733F828715A
:10133000534D14352A79002A2AD000223B79002BFC
:1013400028D000231A40024202D0E089401CE081EC
:10135000012109033046FFF71DF849492231887001
:10136000A978002918D00021BA78002A16D00022C6
:101370001140014202D06089401C6081012100229D
:10138000C9033046FFF70BF80122910330463FE0D6
:101390000122D3E70123D5E70121E5E70122E7E7B1
:1013A000012109033748FEF7F5FF354E2870143642
:1013B000317800292FD000213A78002A2DD0002240
:1013C0001140014202D0E088401CE0800121092048
:1013D000C902C006FEF7DEFFA871B17900291ED050
:1013E0000021BA79002A1CD000221140014202D00B
:1013F000208A401C20820022012101E013E009E044
:10140000204C89032046FEF7CAFF012251032046E3
:10141000FEF7C5FFF8BD0121CEE70122D0E701218B
:10142000DFE70122E1E7012109033046FEF7B2FFC1
:10143000134A68701432517800291CD000217B783F
:10144000002B1AD000231940014202D02089401CF1
:10145000208100217B5C5354685C7854491CC9B2DC
:101460000629F7D90121002249033046FEF797FFEC
:1014700000202071F8BD0121E1E70123E3E700002E
:10148000100000200004004870477047F8B52B4D4D
:1014900009246E01E4062A4F012829D001224021A7
:1014A0002846FEF77CFF012280212846FEF777FFC1
:1014B000012220212846FEF772FF01221021284632
:1014C000FEF76DFF012231462046FEF768FF01223C
:1014D00080213846FEF763FF012211032046FEF704
:1014E0005EFF0122012149022846FEF758FFF8BDA0
:1014F000002240212846FEF752FF00228021284684
:10150000FEF74DFF002220212846FEF748FF00226B
:1015100010212846FEF743FF002231462046FEF701
:101520003EFF002280213846FEF739FF01210022CC
:1015300009032046FEF733FF0022D3E700040048EA
:1015400000140048F8B50446264E0D46C00701D0E9
:10155000002200E0012240213046FEF720FFA007D4
:1015600001D5002200E0012280213046FEF717FF5E
:10157000600701D5002200E0012220213046FEF75D
:101580000EFF200701D5002200E001221021304685
:10159000FEF705FF1449154FE00601D5002200E0D3
:1015A00001223846FEF7FBFE1148A10601D50022B4
:1015B00000E001228021FEF7F2FE0E49600601D50F
:1015C000002200E001223846FEF7E9FE012149022F
:1015D000012D04D001223046FEF7E1FEF8BD0022C5
:1015E000F9E7000000040048008000000000004807
:1015F000001400480010000070B504461C491D4D41
:10160000800601D5002200E001222846FEF7C7FE31
:10161000E00601D5002200E0012208212846FEF75D
:10162000BEFE1549154D200701D5002200E001221C
:101630002846FEF7B4FE1249600701D5002200E0FB
:1016400001222846FEF7ABFE0E48A10701D5002275
:1016500000E001224021FEF7A2FE0B49E00701D085
:10166000002200E001222846FEF799FE70BD00002E
:10167000000100000004004800800000000800484D
:1016800000400000001400480020000070B5174C16
:1016900001252078401CC0B2207001280FD01828E6
:1016A0001CD019280AD1002020706178491CC9B2C9
:1016B0006170052900D960700D48057070BD0B4937
:1016C00060780A4A0831095C921C105CFFF73AFF07
:1016D00060788540E8B2FFF78FFF70BD0020FFF70C
:1016E0008BFF0020FFF7D2FE70BD0000020000203B
:1016F00001000020F0B500231C4F0126C25C002A27
:1017000003D00024202A06D000E0344600252C43D4
:1017100003D00A2215E00125F9E72D2A21D03D2A20
:1017200021D01446303C092C01D8143AD2B21546C7
:10173000413D192D00D8EAB21446613C192C00D85D
:10174000E2B2BC5C0522D51A094A545534469C4085
:101750000C40DC40921DD4545B1CDBB2052BCDD970
:10176000F0BD1B22E3E71A22E1E70000C01D0008DC
:101770000400002010B5FEF71FFEFFF78DF910BD25
:1017800070B594B00024102009940225049005201F
:1017900001260095C00403960A9008950B946846AC
:1017A000FEF7AAFF002800D0FEE707200C900E9459
:1017B00001210D950F940CA8FEF7C6FE002800D05D
:1017C000FEE710A810961294FEF74AFE002800D0FB
:1017D000FEE7FEF74FFF7D21C900FEF783FCFFF710
:1017E00043F90420FFF732F900221146501EFEF79C
:1017F00033FE14B070BD000013480168012211438C
:1018000001604168114A114041600168104A11406D
:1018100001600168012292049143016041683F2206
:10182000120491434160C16A09090901C162016B57
:10183000FF22143291430163416B4908490041631F
:101840000021816070470000001002400CB8FF08C2
:10185000FFFFF6FE10B50248FFF713FA10BD0000B7
:101860003C01002010B50248FFF70BFA10BD000044
:101870007C010020F0B502681A4B1B4C984201D045
:10188000A04203D17025AA434D682A43174D184E34
:10189000184F98420AD0A04208D0174CA04205D059
:1018A000A84203D0B04201D0B84205D11446032269
:1018B00012029443CA6822438024A2434C69224303
:1018C00002608A68C2620A688262984205D0A842B1
:1018D00003D0B04201D0B84201D1096901630121AE
:1018E0004161F0BD002C0140000400400040014077
:1018F00000440140004801400020004030B58468A9
:10190000FF252D021B021343AC430B43234383608B
:1019100030BD826870239A430A4307210A438260DC
:10192000704730B5036A046A64086400046284691D
:10193000F025AC43120122430A24A3430B438261E6
:10194000036230BD30B5036A1024A3430362846987
:10195000036A0F252D031203AC432243A024A343A3
:10196000090119438261016230BD10B5406A00224D
:10197000014640314A834A82FFF743FA10BD0168AD
:101980000A68FF2321339A430A6001688A68520873
:1019900052008A60202160308172704710B5016862
:1019A0000A6840239A430A60202269210A54FFF7FB
:1019B000B4FA002010BD70B50246403203466033D1
:1019C000948B9D7A0168222D05D0886908221043E6
:1019D0008861022070BD898C012685683603B54276
:1019E00002D10569002D0BD02140446D651C456571
:1019F0002170518B491E0904090C518307D015E051
:101A0000456D21402980416D891C4165F1E70168E0
:101A10000A68FF242134A2430A6001688A685208D8
:101A200052008A6020219972FFF776FA002070BD7B
:101A30006921095C212901D0022070470246403209
:101A4000518A002912D0012381681B03994202D1D7
:101A50000169002915D0C16C4B1CC364006809786A
:101A60000185508A401E50820020704701680A6834
:101A700080239A430A600068016840221143016094
:101A8000F2E7C16C03680988C905C90D1985C16CE5
:101A9000891CC164E5E7000010B50248FFF7B2F900
:101AA00010BD000044000020FEE730B47446641E00
:101AB0002578641CAB4200D21D46635D5B00E318D1
:101AC00030BC184702E008C8121F08C1002AFAD12A
:101AD00070477047002001E001C1121F002AFBD1AE
:101AE0007047000010B52D4C0121002289022046CC
:101AF000FEF755FC002201212046FEF750FC092488
:101B0000E406002208212046FEF749FC00220421B9
:101B10002046FEF744FC002202212046FEF73FFC4F
:101B2000002201212046FEF73AFC3C20FEF780FB14
:101B30000021302000F04AF81420FEF779FB002144
:101B4000302000F043F80120FEF772FB0021302026
:101B500000F03CF80021202000F038F80021282077
:101B600000F034F80021142000F030F800210C209F
:101B700000F02CF80021062000F028F80120FEF7E4
:101B800057FB0021012000F021F80021802000F007
:101B90001DF80120FEF74CFB10BD000000040048BA
:101BA00010B501280BD002280BD003280BD0042835
:101BB00004D1D331C8B2002100F008F810BD7F3144
:101BC000F8E7BF31F6E79331F4E7000070B504465B
:101BD000012080023D4D002901D0012200E00022B9
:101BE00001462846FEF7DBFB394EE00901D0012211
:101BF00000E0002201213046FEF7D1FBA009C0071A
:101C000001D0012200E0002202213046FEF7C7FB8E
:101C10006009C00701D0012200E000220421304603
:101C2000FEF7BDFB2009C00701D0012200E0002221
:101C300008213046FEF7B3FB012211462846FEF785
:101C4000AEFB0220401CFA28FCD3002201212846CA
:101C5000FEF7A5FBE008C00701D0012200E000224A
:101C600001213046FEF79BFBA008C00701D00122EE
:101C700000E0002202213046FEF791FB6008C00719
:101C800001D0012200E0002204213046FEF787FB4C
:101C9000E00701D0012200E0002208213046FEF7D3
:101CA0007EFB012211462846FEF779FB0221491CE2
:101CB000FA29FCD3002201212846FEF770FB0549D2
:101CC0000220401C8842FCD370BD00000004004884
:101CD00000000048983A000010B5044603E00121D6
:101CE000641CFFF773FF20780028F8D110BD0000B6
:101CF000FEF76AFBFFF744FDFFF712F9FFF730FA32
:101D0000FFF7F2F9FFF7EEFE1FA0FFF7E5FF012155
:101D10000220FFF745FF20A0FFF7DEFF7D20000136
:101D2000FEF786FA00210120FFF750FF0B21022069
:101D3000FFF736FF1CA0FFF7CFFF7D20C000FEF7A6
:101D400077FA00211AA0FFF7D5FC1B48FEF716FF13
:101D50000926F606194C0025207801280CD101220D
:101D600080213046FEF71BFBFFF790FC002280210C
:101D70003046FEF714FB257060780128ECD1FFF7A0
:101D800033FA6570E8E700002020202032783136F1
:101D9000204C4344000000002023202044454E45B1
:101DA0004D4553492020230042696C6B6F6E000043
:101DB0006F306F306F3000007C0100200000002089
:101DC000777C395E79713D76300E003800543F7370
:101DD0004F506D781C0000006E5B48403F065B4F23
:101DE000666D7D077F6F00000000000000000102AB
:101DF0000304060708090000181E00080000002060
:101E000044000000C41A00085C1E000844000020C2
:101E10007C050000D41A000800000000000000004B
:101E200000000000000000000100010000000000B0
:101E300000000000000000000000000000000000A2
:101E40000000000000000000000000000000000092
:0C1E50000000000000127A0000000000FA
:04000005080000B53A
:00000001FF
