:020000040800F2
:10000000F0050020C9000008B916000845120008D4
:1000100000000000000000000000000000000000E0
:10002000000000000000000000000000DB190008D4
:100030000000000000000000D9190008A11C000801
:10004000DB00000800000000DB000008DB00000807
:10005000DB000008DB000008DB000008DB00000814
:1000600000000000DB00000835010008DB0000088C
:10007000DB000008DB000008DB00000800000000D7
:10008000811D0008911D000800000000DB00000831
:10009000DB000008DB000008DB000008DB000008D4
:1000A000DB000008DB000008DB0000087922000804
:1000B000DB0000080348854600F02AF800480047A6
:1000C000AD240008F005002004488047044800479C
:1000D000FEE7FEE7FEE7FEE7FEE7FEE7251D000878
:1000E000B500000830B50B4601460020202201244F
:1000F00009E00D46D5409D4205D31D469540491B5C
:100100002546954040191546521E002DF1DC30BDA4
:10011000064C0125064E05E0E36807CC2B430C3C5A
:1001200098471034B442F7D3FFF7C8FF682500089A
:100130008825000810B5034800F052F8024800F086
:100140004FF810BD1C010020D800002010B5044657
:100150000068054940181421FFF7C4FF800020649F
:100160000248E06310BD0000F8FFFDBF0000024040
:1001700030B5056C0124AC40C56B6C6004686360ED
:100180004368102B036803D099600068C26030BDDB
:100190009A600068C16030BD70B50024014620310E
:1001A0004A78022A03D004218163012416E0026800
:1001B00013680E25AB431360026813685B085B008D
:1001C00013600122056C1346AB40C56B6B604A702F
:1001D00000220A70416B002900D08847204670BD7C
:1001E000F0B4C16B0D6801680C680422066C1346FC
:1001F000B3402B420DD063070BD50B689B0602D48E
:100200000B6893430B60016C8A40C16B4A60C16A02
:1002100019E00227B74002462F4001232032002F69
:1002200015D0A70713D50C68A40604D40C680A25BA
:10023000AC430C605370036C02219940C36B59604E
:1002400000211170816A002916D0F0BC08470827E8
:10025000B7402F4210D024070ED50C680E25AC43B2
:100260000C60046C1946A140C46B616083635370D9
:1002700000211170016BE6E7F0BC704770B5040017
:1002800024D00220214620310D4648702268116892
:100290000F48A3680140606826691843E368334348
:1002A000184363691843A3691843E3691843084373
:1002B00010602046FFF74AFF0020A062E062206342
:1002C0006063A06301216970287070BD012070BD5A
:1002D0000FC0FFFFF8B504468C462030017800259A
:1002E000012909D00126067041780027012905D08F
:1002F000077002252846F8BD0220F8BD0221417092
:10030000A7632068016849084900016061462046EA
:10031000FFF72EFFE06A00282068016802D00E2255
:10032000114306E00A22114301602068016804229B
:10033000914301602068016831430160DAE731B51B
:1003400000F0BCF8009C0546601C00D0641C00F066
:10035000B5F8401BA042FAD338BD0000F8B5002321
:100360008DE001249C40A44622407DD04C68022CA4
:1003700001D0122C0CD1DC08A40027183C6A5D07C0
:10038000ED0E0F26AE40B4430E69AE4026433E62EA
:1003900005685E000324B4400F79A543BF07BF0F73
:1003A000B7402F4307604D68012D05D0022D03D0C3
:1003B000112D01D0122D0ED18568CF68A543B7400D
:1003C0002F43876047686546AF430D79ED06ED0F13
:1003D0009D403D434560C568A5438C68B4402C43AF
:1003E000C4604C68E40049D5284CA5690126354312
:1003F000A561A4699D0834400094254CAD002F19D7
:10040000BC689D072E0F0F25B540AC430925ED06AE
:10041000A84201D100250FE01E4DA84201D10125BF
:100420000AE01D4DA84201D1022505E01B4DA8425E
:1004300001D1032500E00525B5402543BD60184CDA
:1004400025684E689543F60300D515432560656819
:100450004E689543B60300D515436560A5684E68A0
:100460009543F60202D500E008E01543A560E56873
:100470004E689543B60200D51543E5605B1C0A68DB
:100480001446DC4000D06CE7F8BD000000100240CC
:10049000000001400004004800080048000C00482B
:1004A000000401400069084000D001207047002A84
:1004B00001D0816170478162704700000148006887
:1004C000704700006400002002480168491C016078
:1004D000704700006400002010B506480168102233
:1004E00011430160002000F007F800F017F8002029
:1004F00010BD00000020024010B5044600F042F993
:100500007D21C900FFF7EEFD00F046FB00222146E9
:10051000501E00F029F8002010BD000008B50C485E
:10052000816901221143816180691040002200909D
:100530001146501F00F018F800221146901E00F0DE
:1005400013F800221146501E00F00EF808BD0000FE
:1005500000100240C106C90E012088400149086010
:100560007047000000E100E010B501F0A7F810BDF1
:10057000F8B505460068354CC00352D5E069002641
:10058000C00007D4E16920040143E161E169014051
:10059000012600912E480168C90510D40168821512
:1005A00011430160FFF78AFF074604E0FFF786FF6B
:1005B000C01B642824D826480068C005F6D5206AE8
:1005C00003273F02384020D06968394081421CD05F
:1005D000206A226AB843012109040A432262226A7E
:1005E0008A4322622062C0070FD0FFF767FF0090A6
:1005F00008E0FFF763FF0099411A1648814201D9CC
:100600000320F8BD206A8007F3D5206A6968B843E3
:1006100008432062002E04D0E169012000078143D5
:10062000E1612878C00705D0206BA96880088000A8
:10063000084320632878800605D5206B1021884365
:10064000E968084320630020F8BD00000010024064
:100650000070004088130000F8B5054644480E4677
:100660000068C007C00FB0420AD24148016849087B
:100670004900314301600068C007C00FB0425CD13F
:1006800028783C4C800705D56068F0218843A9682C
:10069000084360602878C0073FD06868012813D0FD
:1006A0002168022813D08907002946DA6168890881
:1006B000890001436160FFF701FF6968074601296E
:1006C0000DD0022917D024E021688903ECE78901C5
:1006D000EAE7FFF7F3FEC11B2748814217D860689D
:1006E0000007800F0128F4D117E0FFF7E7FEC11BD8
:1006F000214881420BD860680007800F0228F4D19E
:100700000BE0FFF7DBFEC11B1B48814201D9032030
:10071000F8BD60680007800FF3D115480168C9076C
:10072000C90FB1420BD90168490849003143016042
:100730000068C007C00FB04201D00120F8BD287882
:10074000400706D56068072109028843E968084325
:10075000606000F02DF86168084A0906090F515CD5
:10076000C840074908600020FFF7C6FE0020F8BD1A
:100770000020024000100240881300004E250008AF
:100780006000002001480068704700006000002001
:100790000448054900684968044A4905490F515C05
:1007A000C840704760000020001002405E2500082D
:1007B00010B512A30FCB88B06C460FC413A30FCB98
:1007C0000FC416494A680C20134603401448042BF2
:1007D0000FD0082B0DD193021B0F6C46E45CC96A45
:1007E00004AB0907090F595CD20304D5FFF77AFC63
:1007F000604308B010BD0B486043FAE702030405EC
:10080000060708090A0B0C0D0E0F10100102030455
:1008100005060708090A0B0C0D0E0F100010024008
:1008200000127A0000093D00FEB504460078D04D64
:10083000C00747D068680007800F012807D06868A4
:100840000007800F022809D16868C00306D5286810
:10085000800337D5606800287ED033E001206268CD
:100860000004012A11D08100002A01D0052A10D0ED
:100870002A6882432A6028688843286060680028C4
:1008800014D0FFF71BFE06460CE0296801432960DF
:10089000F4E72A680A432A60F7E7FFF70FFE801B98
:1008A00064286FD828688003F7D50BE0FFF706FEB1
:1008B000064604E0FFF702FE801B6428F1D8286892
:1008C0008003F7D420780126800700283BDA686887
:1008D0000007800F07D068680007800F022809D141
:1008E0006868C00306D42868800715D5E068012829
:1008F00032D111E0E0680028286815D03043286024
:10090000FFF7DCFD074604E0FFF7D8FDC01B022817
:10091000C7D828688007F7D52868F8218843216957
:10092000C900084328600EE0400840002860FFF737
:10093000C5FD074604E0FFF7C1FDC01B0228B0D883
:1009400028688007F7D42078000724D5E0690028BC
:10095000686A10D0304300E008E16862FFF7AEFD3E
:10096000074604E0FFF7AAFDC01B022899D8686A71
:100970008007F7D50FE0400840006862FFF79EFD52
:10098000074605E09DE0FFF799FDC01B022888D8C7
:10099000686A8007F7D4207804274007002860DAC7
:1009A00000200190E869C00008D4E969B806014355
:1009B000E961E96901400120009101906D480168F9
:1009C000C90511D40168821511430160FFF776FD56
:1009D000009005E0FFF772FD0099401A642870D876
:1009E00064480068C005F5D5A06801280AD0002831
:1009F00001D0052810D0286A400840002862286AE3
:100A0000B84301E0286A30432862A068002812D069
:100A1000FFF754FD00900AE0286A38432862F1E7A6
:100A2000FFF74CFD0099411A5348814249D8286A82
:100A30008007F5D50DE0FFF741FD009006E0FFF7D8
:100A40003DFD0099411A4C4881423AD8286A8007F6
:100A5000F5D40198002804D0E969012000078143FA
:100A6000E9612078C00635D5606901280CD0401DA9
:100A7000686B23D038436863686B40084000686344
:100A8000FFF71CFD064622E0686B38436863686B1D
:100A900030436863FFF712FD064604E0FFF70EFDE2
:100AA000801B02285BD8686B8007F7D5686BF8213C
:100AB0008843A169C900084368630BE0B8436863D1
:100AC000F4E74CE0FFF7FAFC801B022847D8686B7C
:100AD0008007F7D4206A002846D069680907890F83
:100AE000022943D0012636060228286805D0B043E3
:100AF0002860FFF7E3FC044633E0B0432860FFF7CB
:100B0000DDFC074604E0FFF7D9FCC01B022826D80D
:100B100028688001F7D4E86AE16A00090001084307
:100B2000E862616AA06A084369683D221204914341
:100B300008436860286830432860FFF7BFFC04461C
:100B400004E0FFF7BBFC001B022808D828688001DE
:100B5000F7D509E0FFF7B2FC001B022801D90320FA
:100B6000FEBD28688001F5D40020FEBD0120FEBD39
:100B70000010024000700040881300000422044965
:100B80000428086902D09043086170471043FBE7CE
:100B900000E000E070470000094910B5401E88429F
:100BA00001D9012010BD074C60610321081F00F02E
:100BB00085FD0020A06107202061002010BD0000FD
:100BC000FFFFFF0000E000E010B5FFF7E3FF10BDFE
:100BD0007047704770B502462032137F012B1BD03F
:100BE0000123137702245477046865687026B5439F
:100BF0006560046865680E68354365600468A568CB
:100C00008026B543A5600068846849680C43846009
:100C100053770020107770BD022070BD70B50400BE
:100C200005D025462035687F002802D006E0012047
:100C300070BD00202877204600F00AF8022068776F
:100C4000211D206801F0ACF801206877002070BDFC
:100C500008B5134A0168134891420DD1C2690221B7
:100C60000A43C261C069002208400090114610206A
:100C7000FFF77AFC10200FE00B4A91420ED1C269B7
:100C800010210A43C261C069002208400090114649
:100C90001120FFF769FC1120FFF75CFC08BD000084
:100CA0000004004000100240001000400268D368B9
:100CB00001210B43D360006802680A4302600020F0
:100CC0007047F8B5054604462035287F012817D01F
:100CD00001272F7702206877226890687726FF2304
:100CE000B0431B02984390600868502837D00EDC50
:100CF000202857D006DC00284ED0102840D14EE0E6
:100D00000220F8BD302850D0402839D13CE060287E
:100D10002DD0702817D001221203801A0ED09042D5
:100D20002ED1CB684A688968206801F07DF8206878
:100D30008168012292031143816021E0206881686B
:100D4000C908C900F8E7CB684A688968206801F0DB
:100D50006BF821688868B0433043886010E0CA6847
:100D60004968206801F073F85021206806E0CA68DD
:100D70004968206801F07CF86021206801F05FF884
:100D80006F7700202877F8BDCA684968206801F0AD
:100D90005EF840212068F1E700212068EEE710218D
:100DA0002068EBE720212068E8E730212068E5E7AC
:100DB000704770B50446006801690025C94389077A
:100DC000002915DBC168C943890711D4E91E0161F7
:100DD00001202077206880698007204602D0FFF735
:100DE000E7FF04E000F096F8204600F094F825773D
:100DF00020680169C943490717D4C168C943490735
:100E000013D40421C943016102202077206880693E
:100E10008005800F204602D0FFF7CAFF04E000F0F3
:100E200079F8204600F077F8257720680169C943F2
:100E3000090716D4C168C943090712D40821C94358
:100E40000161042020772068C0698007204602D015
:100E5000FFF7AEFF04E000F05DF8204600F05BF81D
:100E6000257720680169C943C90617D4C168C943F9
:100E7000C90613D41021C9430161082020772068D6
:100E8000C0698005800F204602D0FFF791FF04E083
:100E900000F040F8204600F03EF825772068016910
:100EA000C943C90708D1C168C943C90704D1891E0C
:100EB0000161204600F030F820680169C943090645
:100EC00009D4C168C943090605D48021C943016119
:100ED0002046FFF77DFE20680169C943490609D411
:100EE000C168C943490605D44021C9430161204670
:100EF00000F01EF820680169C943890609D4C16859
:100F0000C943890605D42021C94301612046FFF762
:100F100060FE70BD7047704700680349884202D187
:100F200002490120087070470010004000000020B6
:100F300070477047F8B503680446D96918680D070B
:100F40002D0F07D18A0605D5820603D5204601F06C
:100F500089F8F8BD9A68002D64D0D507ED0FFF26FB
:100F6000213606402E435DD0CE0706D0C60504D5F7
:100F700001261E62E36E3343E3668F0702230426D5
:100F8000002F06DAD70704D027683B62E76E3743A5
:100F9000E7664F0706D5D20704D022681662E26ED4
:100FA0001A43E2660A0709D5202202402A4305D0E7
:100FB000236808221A62E36E1343E366E26E002A96
:100FC000C7D0890604D5800602D5204601F04AF82C
:100FD000E06E000703D42068806840061CD52046D8
:100FE00001F01BF820688168490611D5816840220C
:100FF00091438160606E00280AD012494163606E9F
:10100000FFF7CAF80028A4D0606E416B8847F8BD8E
:101010002046FFF78EFFF8BD2046FFF78AFF00202D
:10102000E066F8BD0A0605D5020603D5204601F0A4
:10103000EFF8F8BD4906FCD54006FAD5204600F089
:10104000FBFFF8BD731F000870B5040005D02546EE
:101050006035687A002802D006E0012070BD0020CB
:101060002872204600F026F8242068722068016863
:10107000490849000160204601F032F80128EDD00E
:10108000606A002802D0204600F005FF2068416811
:101090000122D20291434160206881680822914375
:1010A000816020680168012211430160204600F040
:1010B00057FF70BDF0B5064600682A4987B08842E0
:1010C0004ED129488269012189030A4382618069DE
:1010D0000840059003204002009002200190012169
:1010E000032003900291049109206946C006FFF78E
:1010F00035F91E481E4D002411C52C60AC608027B8
:10110000EC606F6020206C6128611948083DFFF792
:10111000B5F8002803D03B2116A001F0D1F8756680
:101120006E62134D11484435143828601020291D73
:1011300091C12C616C61AC612846EC61FFF79EF8AF
:10114000002803D048210BA001F0BAF83566002230
:1011500011461B206E62FFF707FA1B20FFF7FAF912
:1011600007B0F0BD003801400010024030000240DE
:10117000D80000202E2E2F5372632F757361727466
:101180002E630000F8B5054604466035A87A20288D
:1011900041D100290BD0002A09D00123A0681B03EC
:1011A000984206D12069002803D1C80701D0012048
:1011B000F8BD287A01282ED00120287258206165B8
:1011C00002530026E6662220A872616E13488862E8
:1011D000616E1348C862616E12480863606E134600
:1011E0004663676D21683A462431606EFFF772F8F6
:1011F0002E7220680168FF220132114301602068CD
:101200008168012211438160206881684022114376
:1012100081600020F8BD0220F8BD0000D11F000849
:1012200011200008871F000800680349884202D186
:10123000024901204870704700380140000000203A
:1012400070477047FEE7000030B503280DD8C20094
:1012500040081018401CC2B2044B00200C5C15184A
:10126000401CC0B25C550728F8D930BD10000020E2
:10127000F8B501224B4E950229463046FFF717F983
:10128000494C2078002803D00021112812D000E01A
:1012900001210020014304D0002229463046FFF7F7
:1012A00006F9414D20786D1C285C404FC00903D0E1
:1012B000012202E00120EDE7002201213846FFF77C
:1012C000F6F82078285C8009C00701D0012200E0F0
:1012D000002202213846FFF7EAF82078285C40090E
:1012E000C00701D0012200E0002204213846FFF7A8
:1012F000DEF82078285C0009C00701D0012200E058
:10130000002208213846FFF7D2F801221146304664
:10131000FFF7CDF8002201213046FFF7C8F820780A
:10132000285CC008C00701D0012200E00022012192
:101330003846FFF7BCF82078285C8008C00701D049
:10134000012200E0002202213846FFF7B0F82078A1
:10135000285C4008C00701D0012200E000220421DF
:101360003846FFF7A4F82078285CC00701D0012296
:1013700000E0002208213846FFF799F801221146C3
:101380003046FFF794F8002201213046FFF78FF82E
:101390002078401CC0B22070222801D1002020708B
:1013A000F8BD0000000400480F00002000000048C5
:1013B00008B5084841690122114341614069104064
:1013C0000022009011460A20FFF7CEF80A20FFF70E
:1013D000C1F808BD00100240F0B56C4887B0406904
:1013E0000121C90408436949486148690121C904C8
:1013F0000840059065484069C90008436349486151
:10140000486901218905084005906048416901202B
:1014100040045E4A0143516151690140059151699F
:1014200040000143516151690924014024030591A1
:1014300001222146E003FFF73AF82F263601012268
:1014400031465348FFF733F8012280215148FFF716
:101450002EF8FF270937012239464D48FFF727F8B4
:101460000721012249034C48FFF721F801224021BE
:101470004848FFF71CF80022FF21E003FFF717F8A8
:10148000002246494248FFF712F8FF2100220131AD
:10149000E003FFF70CF80721002249033C48FFF75F
:1014A00006F80122D1023A48FFF701F8009400241F
:1014B00001250920019502946946C0060394FEF7B0
:1014C0004DFF029469463248009601950394FEF759
:1014D00045FF8020009002946946019503942D48B1
:1014E000FEF73CFF02946946294800970195039452
:1014F000FEF734FF072040030090029469460195EF
:1015000003942548FEF72AFF402000900294694684
:10151000019503941F48FEF721FFFF20009009204A
:101520000294694601950394C006FEF717FF1B4815
:10153000009002946946019503941548FEF70EFF4A
:101540002802009009200294694601950394C00680
:10155000FEF704FF1D20C002009002946946019529
:1015600003940B48FEF7FAFEE80202256A4631C2F0
:1015700009206946C006FEF7F1FEE8026A4631C25C
:1015800069460348FEF7EAFE07B0F0BD00100240CE
:10159000000400480014004800080048030400004C
:1015A00010B5184886B01649016000242F218460C8
:1015B0004160046114498461C160FFF72FFB00287A
:1015C00003D0132111A000F07BFE01200003009046
:1015D00069460C48FFF775FB002803D019210BA0C2
:1015E00000F06EFE049404A906480594FFF7F2FA91
:1015F000002803D0202105A000F062FE06B010BD37
:10160000000400406C010020E70300002E2E2F5341
:1016100072632F74696D2E630000000010B50A48D4
:10162000084901602F2141600021084A8160C260A1
:101630008161FFF7F3FA002803D02E2104A000F007
:101640003FFE10BD00100040AC010020E703000089
:101650002E2E2F5372632F74696D2E6300000000CD
:1016600010B50D480B4901604B21C90141600021B3
:101670008160C16001618161C1610C2201624261CE
:101680004162FFF7E1FC002803D01E2103A000F017
:1016900017FE10BD00380140680000202E2E2F5389
:1016A00072632F75736172742E630000014900200C
:1016B0000870704732000020704700008307FF2247
:1016C000DB0E9A408907090E994000280BDA0007C3
:1016D000000F0838830808489B001818C369934313
:1016E0000B43C3617047830804489B001B181868AC
:1016F000904308431860704700ED00E000E400E00C
:1017000010B5C407012300220A49002C01D00B7038
:1017100000E00A70840701D54B7000E04A7044076E
:1017200001D58B7000E08A70000701D5CB7010BD29
:10173000CA7010BD34000020F8B5A54CA54E207924
:101740002546401CC0B222352071EF1F030000F077
:10175000B8FD07FE05375290CFFDFE0001210022A3
:10176000C9023046FEF7A3FE2078012820D00122CE
:101770000121C9033046FEF79AFE6078012819D08E
:101780000122012189033046FEF791FEA07801284D
:1017900012D00122012149033046FEF788FEE0788D
:1017A00001280BD00122FF2101310920C006D7E01A
:1017B0000022DDE70022E4E70022EBE70022F2E767
:1017C0000122D1023046FEF772FE012209201102E9
:1017D000C006FEF76CFE01210022C9033046FEF769
:1017E00066FE0121002289033046FEF760FE0022DA
:1017F0000121490372E0012109037648FEF752FEF8
:10180000734EE8701436F17800292AD00021FA7856
:10181000002A28D000221140014202D0608A401CD8
:10182000608201210920C902C006FEF73BFE6871F3
:101830007179002919D000217A79002A17D0002265
:101840001140014202D0A089401CA081FF21092043
:1018500000220131C006FEF72AFE0122D1035D48B5
:101860007EE00121D3E70122D5E70121E4E701224F
:10187000E6E701210920C902C006FEF713FE287120
:10188000534D14352A79002A2AD000223B79002BA7
:1018900028D000231A40024202D0E089401CE08197
:1018A000012109033046FEF7FDFD494922318870C8
:1018B000A978002918D00021BA78002A16D0002271
:1018C0001140014202D06089401C60810121002248
:1018D000C9033046FEF7EBFD0122910330463FE09D
:1018E0000122D3E70123D5E70121E5E70122E7E75C
:1018F000012109033748FEF7D5FD354E287014360F
:10190000317800292FD000213A78002A2DD00022EA
:101910001140014202D0E088401CE08001210920F2
:10192000C902C006FEF7BEFDA871B17900291ED01C
:101930000021BA79002A1CD000221140014202D0B5
:10194000208A401C20820022012101E013E009E0EE
:10195000204C89032046FEF7AAFD012251032046B0
:10196000FEF7A5FDF8BD0121CEE70122D0E7012158
:10197000DFE70122E1E7012109033046FEF792FD8E
:10198000134A68701432517800291CD000217B78EA
:10199000002B1AD000231940014202D02089401C9C
:1019A000208100217B5C5354685C7854491CC9B287
:1019B0000629F7D90121002249033046FEF777FDB9
:1019C00000202071F8BD0121E1E70123E3E70000D9
:1019D000340000200004004870477047F8B52B4DD4
:1019E00009246E01E4062A4F012829D00122402152
:1019F0002846FEF75CFD012280212846FEF757FDB0
:101A0000012220212846FEF752FD012210212846FE
:101A1000FEF74DFD012231462046FEF748FD01222A
:101A200080213846FEF743FD012211032046FEF7D0
:101A30003EFD0122012149022846FEF738FDF8BD8E
:101A4000002240212846FEF732FD00228021284650
:101A5000FEF72DFD002220212846FEF728FD00225A
:101A600010212846FEF723FD002231462046FEF7CE
:101A70001EFD002280213846FEF719FD01210022BB
:101A800009032046FEF713FD0022D3E700040048B7
:101A900000140048F8B50446264E0D46C00701D094
:101AA000002200E0012240213046FEF700FDA007A1
:101AB00001D5002200E0012280213046FEF7F7FC2C
:101AC000600701D5002200E0012220213046FEF708
:101AD000EEFC200701D5002200E001221021304653
:101AE000FEF7E5FC1449154FE00601D5002200E0A1
:101AF00001223846FEF7DBFC1148A10601D5002281
:101B000000E001228021FEF7D2FC0E49600601D5DB
:101B1000002200E001223846FEF7C9FC01214902FB
:101B2000012D04D001223046FEF7C1FCF8BD002291
:101B3000F9E70000000400480080000000000048B1
:101B4000001400480010000070B504461C491D4DEB
:101B5000800601D5002200E001222846FEF7A7FCFE
:101B6000E00601D5002200E0012208212846FEF708
:101B70009EFC1549154D200701D5002200E00122E9
:101B80002846FEF794FC1249600701D5002200E0C8
:101B900001222846FEF78BFC0E48A10701D5002242
:101BA00000E001224021FEF782FC0B49E00701D052
:101BB000002200E001222846FEF779FC70BD0000FB
:101BC00000010000000400480080000000080048F8
:101BD00000400000001400480020000010B5002064
:101BE000FFF7B2FF0020FFF7F9FE0C4C2078401CF5
:101BF000C0B22070052801D9002020700749074A8B
:101C0000C91DC0B2095C521C105CFFF743FF21786C
:101C100001208840C0B2FFF797FF10BD02000020EE
:101C2000F0B500231C4F0126C25C002A03D000241B
:101C3000202A06D000E0344600252C4303D00A2297
:101C400015E00125F9E72D2A21D03D2A21D014469F
:101C5000303C092C01D8143AD2B21546413D192D19
:101C600000D8EAB21446613C192C00D8E2B2BC5C40
:101C70000522D51A094A545534469C400C40DC4094
:101C8000921DD4545B1CDBB2052BCDD9F0BD1B22B9
:101C9000E3E71A22E1E700002825000803000020FE
:101CA00010B5FEF711FCFEF78FFF10BD70B594B0B4
:101CB0000024102009940225049005200126009597
:101CC000C00403960A9008950B946846FEF7ACFD95
:101CD000002800D0FEE707200C900E9401210D95FE
:101CE0000F940CA8FEF7B8FC002800D0FEE710A85F
:101CF00010961294FEF73CFC002800D0FEE7FEF799
:101D000041FD7D21C900FEF7EDF9FEF745FF0420F6
:101D1000FEF734FF00221146501EFEF725FC14B0DA
:101D200070BD000013480168012211430160416841
:101D3000114A114041600168104A11400160016878
:101D4000012292049143016041683F2212049143B1
:101D50004160C16A09090901C162016BFF221432A5
:101D600091430163416B490849004163002181604F
:101D700070470000001002400CB8FF08FFFFF6FE9D
:101D800010B50248FFF715F810BD00006C010020E7
:101D900010B50248FFF70DF810BD0000AC0100209F
:101DA000F0B502681A4B1B4C984201D0A04203D1F7
:101DB0007025AA434D682A43174D184E184F984274
:101DC0000AD0A04208D0174CA04205D0A84203D0A8
:101DD000B04201D0B84205D1144603221202944306
:101DE000CA6822438024A2434C69224302608A6865
:101DF000C2620A688262984205D0A84203D0B0420B
:101E000001D0B84201D10969016301214161F0BDEE
:101E1000002C01400004004000400140004401400B
:101E2000004801400020004030B58468FF252D02A5
:101E30001B021343AC430B432343836030BD8268D2
:101E400070239A430A4307210A438260704730B5E2
:101E5000036A046A6408640004628469F025AC4380
:101E6000120122430A24A3430B438261036230BD63
:101E700030B5036A1024A34303628469036A0F2503
:101E80002D031203AC432243A024A34309011943A9
:101E90008261016230BD10B5818CC90707D001682D
:101EA0004A6801235B049A43836A1A434A60818C1F
:101EB000890707D501684A6801231B049A43C36A4E
:101EC0001A434A60818C490707D501684A68012393
:101ED0009B049A43036B1A434A60818C090707D518
:101EE00001684A680123DB039A43436B1A434A6043
:101EF000818CC90607D50268916801231B039943A9
:101F0000836B19439160818C890607D501688A68C3
:101F100001235B039A43C36B1A438A60818C490691
:101F200012D503685A6801210905046C8A432243CB
:101F30005A60026C8A4207D10268516803235B052C
:101F40009943436C19435160818C090607D5016898
:101F50004A680123DB04806C9A4302434A6010BD47
:101F60000021C166202260304272827201720846EE
:101F7000704710B5406A0022014640314A834A82C8
:101F8000FEF7D7FF10BD70B5446A25466035687A04
:101F90000026212808D120688068000604D5522038
:101FA0000653204600F055F8A87A222808D1206868
:101FB0008068400604D55A200653204600F02DF8CC
:101FC000E06E10210843E0662046FEF7B2FF70BDC8
:101FD00010B501460968406A0968890615D40022CF
:101FE0005A210A5201680A68FF2301339A430A60A2
:101FF00001688A68520852008A6001688A68402332
:102000009A438A6020226A210A54FFF70DF910BD15
:1020100010B5406AFFF714F910BD01680A68FF2384
:1020200021339A430A6001688A68520852008A6024
:10203000202160308172704710B501680A68402322
:102040009A430A60202269210A54FFF7FAF8002017
:1020500010BD01680A68C0239A430A6020216030DD
:102060004172704770B50246403203466033948B2C
:102070009D7A0168222D05D0886908221043886165
:10208000022070BD898C012685683603B54202D1D5
:102090000569002D0BD02140446D651C45652170FC
:1020A000518B491E0904090C518307D015E0456D79
:1020B00021402980416D891C4165F1E701680A686A
:1020C000FF242134A2430A6001688A685208520042
:1020D0008A6020219972FFF7A7F8002070BD0000E8
:1020E000F8B504462369A268E5691A4363691020BC
:1020F0002B43002125681A432B680E463E4F3B4078
:1021000013432B6023685A6803252D03AA43E5680F
:102110002A435A60236AA26925681A43AB680B27D1
:102120003F02BB431343AB60344A2568954210D14C
:10213000334A126B9207920F0ED0012A05D0022A61
:1021400005D0032A09D1022007E0042005E0082079
:1021500003E02C4A954200D100200122E369D2031A
:10216000934224D100280CD002280DD0042813D08B
:10217000082817D001260A0912010807400F10434A
:102180002FE0FEF705FB09E061681F4A4808801848
:10219000FDF7A8FF81B2EEE7FEF70AFB6168400099
:1021A0004A08F4E76168012248081204EFE70028B2
:1021B00008D0022809D004280BD0082814D0012602
:1021C0003046F8BDFEF7E4FA05E061680F4A4808BA
:1021D0000CE0FEF7EDFA61684A088018FDF782FF0F
:1021E00080B22168C860EBE7616848088018FDF795
:1021F00079FF80B2E860E3E7F369FFFF0038014050
:1022000000100240004400400024F40000127A0054
:102210006921095C212901D0022070470246403221
:10222000518A002912D0012381681B03994202D1EF
:102230000169002915D0C16C4B1CC3640068097882
:102240000185508A401E50820020704701680A684C
:1022500080239A430A6000680168402211430160AC
:10226000F2E7C16C03680988C905C90D1985C16CFD
:10227000891CC164E5E7000010B50248FEF75AFE6C
:1022800010BD00006800002010B50C4C20784328D9
:1022900013D0522811D057280FD16078032802D8C4
:1022A000A11CFEF7D1FF6078042806D1217AA01C7A
:1022B000FFF7B6FC607AFFF723FA10BD600100203B
:1022C000FEE730B47446641E2578641CAB4200D22D
:1022D0001D46635D5B00E31830BC184702E008C888
:1022E000121F08C1002AFAD170477047002001E090
:1022F00001C1121F002AFBD17047000010B52D4C00
:102300000121002289022046FEF7D1F80022012196
:102310002046FEF7CCF80924E406002208212046D6
:10232000FEF7C5F8002204212046FEF7C0F800227F
:1023300002212046FEF7BBF8002201212046FEF7CD
:10234000B6F83C20FDF7FBFF0021302000F034F808
:102350001420FDF7F4FF0021302000F02DF80120BB
:10236000FDF7EDFF0021302000F026F800212020AD
:1023700000F022F80021282000F01EF8002114208F
:1023800000F01AF800210C2000F016F800210620B9
:1023900000F012F80120FDF7D2FF0021012000F02B
:1023A0000BF80021802000F007F80120FDF7C7FF9F
:1023B00010BD00000004004870B5044601208002F2
:1023C000384D002901D0012200E0002201462846B4
:1023D000FEF76DF8344EE00901D0012200E0002242
:1023E00001213046FEF763F8A009C00701D00122A1
:1023F00000E0002202213046FEF759F86009C007CC
:1024000001D0012200E0002204213046FEF74FF8FF
:102410002009C00701D0012200E000220821304637
:10242000FEF745F8012211462846FEF740F8002243
:1024300001212846FEF73BF8E008C00701D0012241
:1024400000E0002201213046FEF731F8A008C00765
:1024500001D0012200E0002202213046FEF727F8D9
:102460006008C00701D0012200E0002204213046AC
:10247000FEF71DF8E00701D0012200E0002208214C
:102480003046FEF714F8012211462846FEF70FF8F1
:10249000002201212846FEF70AF80120FDF74FFF30
:1024A00070BD00000004004800000048FEF714F86A
:1024B000FFF7FCFBFEF790FFFFF7B0F8FEF778FFA1
:1024C000FFF7CEF80A2212491248FEF75BFEFFF72B
:1024D00067F8FFF713FF00210FA0FFF7A1FB1048DB
:1024E000FEF7E4FBFFF7E2F80E4C00252078012808
:1024F00006D1FFF773FBFFF71FF9FEF7B9FE257052
:1025000060780128F2D1FFF7BFFE6570EEE70000AA
:102510006001002068000020303030303030000092
:10252000AC01002000000020777C395E79713D7697
:10253000300E003800543F734F506D781C0000007F
:102540006E5B48403F065B4F666D7D077F6F000006
:102550000000000000000102030406070809000053
:10256000000001020304000088250008000000208C
:1025700068000000DC220008F02500086800002048
:1025800088050000EC2200080000000000000000A8
:1025900000000000000000008020202020202020DB
:1025A000202020202020202020C02020202020208B
:1025B00020202020202020202020000001010101D7
:1025C000000000000000000000000000000000000B
:1025D00000000000000000000000000000000000FB
:1025E000000000000000000000127A00000000005F
:04000005080000B53A
:00000001FF
