:020000040800F2
:1000000080050020C90000082D100008DD0E000842
:1000100000000000000000000000000000000000E0
:100020000000000000000000000000007710000841
:1000300000000000000000007510000879100008A2
:10004000DB00000800000000DB000008DB00000807
:10005000DB000008DB000008DB000008DB00000814
:1000600000000000DB00000835010008DB0000088C
:10007000DB000008DB000008DB00000800000000D7
:10008000591100086911000800000000DB00000899
:10009000DB000008DB000008DB000008DB000008D4
:1000A000DB000008DB000008DB000008B5140008D6
:1000B000DB0000080348854600F02AF800480047A6
:1000C000E5140008800500200448804704480047E4
:1000D000FEE7FEE7FEE7FEE7FEE7FEE7FD100008AD
:1000E000B500000830B50B4601460020202201244F
:1000F00009E00D46D5409D4205D31D469540491B5C
:100100002546954040191546521E002DF1DC30BDA4
:10011000064C0125064E05E0E36807CC2B430C3C5A
:1001200098471034B442F7D3FFF7C8FF14150008FE
:100130003415000810B5034800F03EF8024800F0FE
:100140003BF810BDBC0000207800002010B504462C
:100150000068054940181421FFF7C4FF800020649F
:100160000248E06310BD0000F8FFFDBF0000024040
:1001700070B50024014620314A78022A03D00421B8
:100180008163012416E0026813680E25AB431360F7
:10019000026813685B085B0013600122056C13465C
:1001A000AB40C56B6B604A7000220A70416B00293E
:1001B00000D08847204670BDF0B4C16B0D6801685F
:1001C0000C680422066C1346B3402B420DD0630723
:1001D0000BD50B689B0602D40B6893430B60016C34
:1001E0008A40C16B4A60C16A19E00227B7400246E3
:1001F0002F4001232032002F15D0A70713D50C68FC
:10020000A40604D40C680A25AC430C605370036C3C
:1002100002219940C36B596000211170816A002945
:1002200016D0F0BC08470827B7402F4210D024074B
:100230000ED50C680E25AC430C60046C1946A14029
:10024000C46B61608363537000211170016BE6E73A
:10025000F0BC704770B5040024D002202146203144
:100260000D464870226811680F48A3680140606815
:1002700026691843E3683343184363691843A36945
:100280001843E3691843084310602046FFF75EFFF8
:100290000020A062E06220636063A06301216970B6
:1002A000287070BD012070BD0FC0FFFFF8B500239E
:1002B0008DE001249C40A44622407DD04C68022C55
:1002C00001D0122C0CD1DC08A40027183C6A5D0771
:1002D000ED0E0F26AE40B4430E69AE4026433E629B
:1002E00005685E000324B4400F79A543BF07BF0F24
:1002F000B7402F4307604D68012D05D0022D03D074
:10030000112D01D0122D0ED18568CF68A543B740BD
:100310002F43876047686546AF430D79ED06ED0FC3
:100320009D403D434560C568A5438C68B4402C435F
:10033000C4604C68E40049D5284CA56901263543C2
:10034000A561A4699D0834400094254CAD002F1987
:10035000BC689D072E0F0F25B540AC430925ED065F
:10036000A84201D100250FE01E4DA84201D1012570
:100370000AE01D4DA84201D1022505E01B4DA8420F
:1003800001D1032500E00525B5402543BD60184C8B
:1003900025684E689543F60300D5154325606568CA
:1003A0004E689543B60300D515436560A5684E6851
:1003B0009543F60202D500E008E01543A560E56824
:1003C0004E689543B60200D51543E5605B1C0A688C
:1003D0001446DC4000D06CE7F8BD0000001002407D
:1003E000000001400004004800080048000C0048DC
:1003F00000040140002A01D081617047816270478A
:1004000001480068704700000400002002480168AD
:10041000491C0160704700000400002010B5064828
:100420000168102211430160002000F007F800F07D
:1004300017F8002010BD00000020024010B504464F
:1004400000F042F97D21C900FFF74CFE00F046FBA9
:1004500000222146501E00F029F8002010BD0000A7
:1004600008B50C48816901221143816180691040FF
:10047000002200901146501F00F018F8002211468B
:10048000901E00F013F800221146501E00F00EF8E6
:1004900008BD000000100240C106C90E01208840BE
:1004A000014908607047000000E100E010B500F06D
:1004B000BFFD10BDF8B505460068354CC00352D5E8
:1004C000E0690026C00007D4E16920040143E1612E
:1004D000E1690140012600912E480168C90510D448
:1004E0000168821511430160FFF78AFF074604E0A7
:1004F000FFF786FFC01B642824D826480068C00583
:10050000F6D5206A03273F02384020D06968394079
:1005100081421CD0206A226AB843012109040A439F
:100520002262226A8A4322622062C0070FD0FFF74C
:1005300067FF009008E0FFF763FF0099411A164833
:10054000814201D90320F8BD206A8007F3D5206AD3
:100550006968B84308432062002E04D0E169012095
:1005600000078143E1612878C00705D0206BA968A6
:1005700080088000084320632878800605D5206B1A
:1005800010218843E968084320630020F8BD00007B
:10059000001002400070004088130000F8B50546C6
:1005A00044480E460068C007C00FB0420AD2414816
:1005B000016849084900314301600068C007C00F65
:1005C000B0425CD128783C4C800705D56068F021AA
:1005D0008843A968084360602878C0073FD06868EE
:1005E000012813D02168022813D08907002946DA90
:1005F00061688908890001436160FFF701FF69684C
:10060000074601290DD0022917D024E0216889036B
:10061000ECE78901EAE7FFF7F3FEC11B27488142B7
:1006200017D860680007800F0128F4D117E0FFF7A2
:10063000E7FEC11B214881420BD860680007800F8C
:100640000228F4D10BE0FFF7DBFEC11B1B488142FF
:1006500001D90320F8BD60680007800FF3D1154869
:100660000168C907C90FB1420BD90168490849009F
:10067000314301600068C007C00FB04201D00120C3
:10068000F8BD2878400706D560680721090288432D
:10069000E9680843606000F02DF86168084A0906BF
:1006A000090F515CC840074908600020FFF7C6FEEB
:1006B0000020F8BD00200240001002408813000016
:1006C000FA1400080000002001480068704700008C
:1006D000000000200448054900684968044A4905AB
:1006E000490F515CC84070470000002000100240D4
:1006F0000A15000810B512A30FCB88B06C460FC4C2
:1007000013A30FCB0FC416494A680C2013460340AD
:100710001448042B0FD0082B0DD193021B0F6C46ED
:10072000E45CC96A04AB0907090F595CD20304D51C
:10073000FFF7D8FC604308B010BD0B486043FAE7F0
:1007400002030405060708090A0B0C0D0E0F101012
:100750000102030405060708090A0B0C0D0E0F1011
:100760000010024000127A0000093D00FEB5044668
:100770000078D04DC00747D068680007800F012877
:1007800007D068680007800F022809D16868C00395
:1007900006D52868800337D5606800287ED033E00E
:1007A000012062680004012A11D08100002A01D0D2
:1007B000052A10D02A6882432A6028688843286066
:1007C0006068002814D0FFF71BFE06460CE029687D
:1007D00001432960F4E72A680A432A60F7E7FFF734
:1007E0000FFE801B64286FD828688003F7D50BE0C4
:1007F000FFF706FE064604E0FFF702FE801B6428B2
:10080000F1D828688003F7D42078012680070028D3
:100810003BDA68680007800F07D068680007800F20
:10082000022809D16868C00306D42868800715D556
:10083000E068012832D111E0E0680028286815D06E
:1008400030432860FFF7DCFD074604E0FFF7D8FDE2
:10085000C01B0228C7D828688007F7D52868F82168
:1008600088432169C900084328600EE04008400021
:100870002860FFF7C5FD074604E0FFF7C1FDC01B78
:100880000228B0D828688007F7D42078000724D53C
:10089000E0690028686A10D0304300E008E168622F
:1008A000FFF7AEFD074604E0FFF7AAFDC01B0228D4
:1008B00099D8686A8007F7D50FE040084000686261
:1008C000FFF79EFD074605E09DE0FFF799FDC01B81
:1008D000022888D8686A8007F7D420780427400760
:1008E000002860DA00200190E869C00008D4E969B6
:1008F000B8060143E961E9690140012000910190D6
:100900006D480168C90511D4016882151143016061
:10091000FFF776FD009005E0FFF772FD0099401AA1
:10092000642870D864480068C005F5D5A06801281F
:100930000AD0002801D0052810D0286A40084000BD
:100940002862286AB84301E0286A30432862A06818
:10095000002812D0FFF754FD00900AE0286A3843BF
:100960002862F1E7FFF74CFD0099411A5348814294
:1009700049D8286A8007F5D50DE0FFF741FD0090C2
:1009800006E0FFF73DFD0099411A4C4881423AD8F4
:10099000286A8007F5D40198002804D0E96901206D
:1009A00000078143E9612078C00635D560690128D8
:1009B0000CD0401D686B23D038436863686B4008D7
:1009C00040006863FFF71CFD064622E0686B384371
:1009D0006863686B30436863FFF712FD064604E006
:1009E000FFF70EFD801B02285BD8686B8007F7D5E8
:1009F000686BF8218843A169C900084368630BE06C
:100A0000B8436863F4E74CE0FFF7FAFC801B022868
:100A100047D8686B8007F7D4206A002846D06968F9
:100A20000907890F022943D00126360602282868C3
:100A300005D0B0432860FFF7E3FC044633E0B04341
:100A40002860FFF7DDFC074604E0FFF7D9FCC01B78
:100A5000022826D828688001F7D4E86AE16A0009EC
:100A600000010843E862616AA06A084369683D22A0
:100A70001204914308436860286830432860FFF7F8
:100A8000BFFC044604E0FFF7BBFC001B022808D8AB
:100A900028688001F7D509E0FFF7B2FC001B0228A7
:100AA00001D90320FEBD28688001F5D40020FEBDD9
:100AB0000120FEBD001002400070004088130000BD
:100AC000042204490428086902D090430861704751
:100AD0001043FBE700E000E070470000094910B553
:100AE000401E884201D9012010BD074C60610321DE
:100AF000081F00F09DFA0020A0610720206100205F
:100B000010BD0000FFFFFF0000E000E010B5FFF7A0
:100B1000E3FF10BD70477047704770B5044600682A
:100B200001690025C9438907002915DBC168C9434C
:100B3000890711D4E91E01610120207720688069AE
:100B40008007204602D0FFF7E7FF04E000F096F8A8
:100B5000204600F094F8257720680169C9434907C9
:100B600017D4C168C943490713D40421C94301619B
:100B700002202077206880698005800F204602D0FF
:100B8000FFF7CAFF04E000F079F8204600F077F89C
:100B9000257720680169C943090716D4C168C9438C
:100BA000090712D40821C943016104202077206875
:100BB000C0698007204602D0FFF7AEFF04E000F0D6
:100BC0005DF8204600F05BF8257720680169C9438D
:100BD000C90617D4C168C943C90613D41021C94333
:100BE0000161082020772068C0698005800F2046B9
:100BF00002D0FFF791FF04E000F040F8204600F03B
:100C00003EF8257720680169C943C90708D1C16842
:100C1000C943C90704D1891E0161204600F030F89C
:100C200020680169C943090609D4C168C943090696
:100C300005D48021C94301612046FFF76BFF20687E
:100C40000169C943490609D4C168C943490605D4A5
:100C50004021C9430161204600F013F82068016972
:100C6000C943890609D4C168C943890605D420212E
:100C7000C94301612046FFF74EFF70BD70477047C2
:100C80007047704770470000F8B503680446D9699B
:100C900018680D072D0F07D18A0605D5820603D5E2
:100CA000204600F0FDFAF8BD9A68002D64D0D50703
:100CB000ED0FFF26213606402E435DD0CE0706D02D
:100CC000C60504D501261E62E36E3343E3668F0733
:100CD00002230426002F06DAD70704D027683B62D8
:100CE000E76E3743E7664F0706D5D20704D0226880
:100CF0001662E26E1A43E2660A0709D52022024014
:100D00002A4305D0236808221A62E36E1343E36680
:100D1000E26E002AC7D0890604D5800602D5204697
:100D200000F0BEFAE06E000703D420688068400639
:100D30001CD5204600F098FA20688168490611D534
:100D40008168402291438160606E00280AD0124978
:100D50004163606EFFF70CFA0028A4D0606E416B0F
:100D60008847F8BD2046FFF78DFFF8BD2046FFF706
:100D700089FF0020E066F8BD0A0605D5020603D506
:100D8000204600F063FBF8BD4906FCD54006FAD5C5
:100D9000204600F078FAF8BD5512000870B504003E
:100DA00005D025466035687A002802D006E001208B
:100DB00070BD00202872204600F026F824206872BA
:100DC00020680168490849000160204600F0A6FA41
:100DD0000128EDD0606A002802D0204600F0CCF94E
:100DE000206841680122D2029143416020688168F5
:100DF000082291438160206801680122114301604B
:100E0000204600F01EFA70BDF0B5064600682A497B
:100E100087B088424ED129488269012189030A435B
:100E20008261806908400590032040020090022002
:100E30000190012103200390029104910920694649
:100E4000C006FFF733FA1E481E4D002411C52C6062
:100E5000AC608027EC606F6020206C6128611948CD
:100E6000083DFFF7F7F9002803D06F2116A000F026
:100E700029FB75666E62134D11484435143828609D
:100E80001020291D91C12C616C61AC612846EC6178
:100E9000FFF7E0F9002803D07F210BA000F012FB40
:100EA0003566002211461B206E62FFF7FFFA1B20F9
:100EB000FFF7F2FA07B0F0BD003801400010024021
:100EC00030000240780000202E2E2F5372632F75C1
:100ED000736172742E63000070477047FEE7000074
:100EE00008B5084841690122114341614069104039
:100EF0000022009011460A20FFF7D8FA0A20FFF7D7
:100F0000CBFA08BD00100240F0B52F4887B0426907
:100F10000121C9040A43426142690A4005924269BB
:100F2000C9000A43426142690A4005924269491177
:100F30000A43426142690A400592426949000A43F4
:100F4000426140690724084064030590002221465D
:100F50001E48FFF74FFA1E4E092000223146C006F8
:100F6000FFF748FA1B4F002239461B48FFF742FAA9
:100F70000022C0211948FFF73DFA00940024012502
:100F800001950294694611480394FFF78FF90920EF
:100F900002946946C006009601950394FFF786F90E
:100FA000029469460C48009701950394FFF77EF977
:100FB000C020009002946946019503940748FFF70A
:100FC00075F907B0F0BD00000010024000080048AD
:100FD000FF990000FBFF00000004004800140048D7
:100FE00010B50D480B4901604B21C901416000213A
:100FF0008160C16001618161C1610C220162426155
:101000004162FFF7CBFE002803D0472103A000F088
:1010100059FA10BD00380140080000202E2E2F5331
:1010200072632F75736172742E6300007047000045
:101030008307FF22DB0E9A408907090E994000289A
:101040000BDA0007000F0838830808489B001818BF
:10105000C36993430B43C3617047830804489B00F3
:101060001B181868904308431860704700ED00E0B3
:1010700000E400E07047704710B5FFF7C7F9FFF7CD
:1010800045FD10BD70B594B00024102009940225D0
:101090000490052001260095C00403960A90089547
:1010A0000B946846FFF762FB002800D0FEE707209C
:1010B0000C900E9401210D950F940CA8FFF76EFA79
:1010C000002800D0FEE710A810961294FFF7F2F95E
:1010D000002800D0FEE7FFF7F7FA7D21C900FFF7EF
:1010E00001F8FFF7FBFC0420FFF7EAFC00221146A1
:1010F000501EFFF7DBF914B070BD00001348016803
:101100000122114301604168114A114041600168A8
:10111000104A11400160016801229204914301606C
:1011200041683F22120491434160C16A09090901E3
:10113000C162016BFF22143291430163416B490884
:1011400049004163002181607047000000100240A7
:101150000CB8FF08FFFFF6FE10B50248FFF7DDFCF4
:1011600010BD00000001002010B50248FFF7D5FCBB
:1011700010BD00004001002010B5818CC90707D0C8
:1011800001684A6801235B049A43836A1A434A60F0
:10119000818C890707D501684A6801231B049A439B
:1011A000C36A1A434A60818C490707D501684A68B7
:1011B00001239B049A43036B1A434A60818C0907FD
:1011C00007D501684A680123DB039A43436B1A433E
:1011D0004A60818CC90607D50268916801231B0308
:1011E0009943836B19439160818C890607D5016807
:1011F0008A6801235B039A43C36B1A438A60818C1C
:10120000490612D503685A6801210905046C8A430E
:1012100022435A60026C8A4207D102685168032354
:101220005B059943436C19435160818C090607D5CE
:1012300001684A680123DB04806C9A4302434A60D8
:1012400010BD0021C166202260304272827201729C
:101250000846704710B5406A0022014640314A8373
:101260004A82FFF70FFD10BD01680A68FF23213392
:101270009A430A6001688A68520852008A602021F5
:1012800060308172704710B501680A6840239A4344
:101290000A60202269210A54FFF71FFE002010BDBA
:1012A00070B50246403203466033948B9D7A0168E4
:1012B000222D05D08869082210438861022070BD64
:1012C000898C012685683603B54202D10569002D57
:1012D0000BD02140446D651C45652170518B491E22
:1012E0000904090C518307D015E0456D2140298080
:1012F000416D891C4165F1E701680A68FF242134CA
:10130000A2430A6001688A68520852008A6020215C
:101310009972FFF7E1FD002070BD0000F8B50446AA
:101320002369A268E5691A43636910202B430021F1
:1013300025681A432B680E463E4F3B4013432B60F3
:1013400023685A6803252D03AA43E5682A435A6097
:10135000236AA26925681A43AB680B273F02BB4387
:101360001343AB60344A2568954210D1334A126B5F
:101370009207920F0ED0012A05D0022A05D0032A27
:1013800009D1022007E0042005E0082003E02C4AF0
:10139000954200D100200122E369D203934224D177
:1013A00000280CD002280DD0042813D0082817D00C
:1013B00001260A0912010807400F10432FE0FFF72A
:1013C00089F909E061681F4A48088018FEF78AFE1B
:1013D00081B2EEE7FFF78EF9616840004A08F4E752
:1013E0006168012248081204EFE7002808D00228AB
:1013F00009D004280BD0082814D001263046F8BDA7
:10140000FFF768F905E061680F4A48080CE0FFF74C
:1014100071F961684A088018FEF764FE80B221689D
:10142000C860EBE7616848088018FEF75BFE80B291
:10143000E860E3E7F369FFFF003801400010024075
:10144000004400400024F40000127A006921095C85
:10145000212901D00220704702464032518A0029DA
:1014600012D0012381681B03994202D1016900292E
:1014700015D0C16C4B1CC364006809780185508A83
:10148000401E50820020704701680A6880239A43FA
:101490000A6000680168402211430160F2E7C16CF4
:1014A00003680988C905C90D1985C16C891CC16407
:1014B000E5E7000010B50248FFF7E6FB10BD0000AD
:1014C00008000020FEE702E008C8121F08C1002A39
:1014D000FAD170477047002001E001C1121F002AB5
:1014E000FBD17047FEF79AFFFFF7CCFDFFF70CFD2D
:1014F000FFF7F6FCFFF774FDFEE7000000000000B8
:1015000000000102030406070809000000000102B0
:10151000030400003415000800000020080000004B
:10152000C61400083C1500080800002078050000DB
:0C153000D614000800127A000000000031
:04000005080000B53A
:00000001FF
